:100000006F00C01A1300000013000000130000006E
:100010001300000013000000130000001300000094
:100020001300000013000000130000001300000084
:08003000130000007300100032
:100038000000000000000000400100004201000034
:100048000000000044010000000000000000000063
:100058004601000048010000000000000000000008
:1000680012050000000000004C0100000000000024
:100078004E01000050010000520100005401000030
:1000880056010000580100005A0100005C01000000
:100098005E010000600100006201000064010000D0
:1000A80066010000680100006A0100006C010000A0
:1000B8006E01000070010000720100007401000070
:1000C80076010000780100007A0100007C01000040
:1000D8007E01000080010000820100008401000010
:1000E80086010000880100008A0100008C010000E0
:1000F8008E010000900100009201000094010000B0
:1001080096010000980100009A0100009C0100007F
:100118009E010000A0010000A2010000A40100004F
:10012800A6010000A8010000AA01000000000000CC
:080138000000000000000000BF
:1001400001A001A001A001A001A001A001A001A0A7
:1001500001A001A001A001A001A001A001A001A097
:1001600001A001A001A001A001A001A001A001A087
:1001700001A001A001A001A001A001A001A001A077
:1001800001A001A001A001A001A001A001A001A067
:1001900001A001A001A001A001A001A001A001A057
:1001A00001A001A001A001A001A001A097010020D1
:1001B00093814165175100201301C1E41715000018
:1001C0001305C59F970500209385C5E317060020FA
:1001D000130646E363FAC5008322050023A05500F9
:1001E00011059105E3EAC5FE17050020130585E119
:1001F000938541826377B500232005001105E36DE7
:10020000B5FEFD42739002BC8D4273904280930212
:10021000800873A0023097020000938222E293E2EA
:10022000320073905230EF00A07E9702000093825C
:10023000E26D7390123473002030011122CE001051
:100240002326A4FE8327C4FEFD8B0547B316F700C3
:1002500037E700E08327C4FE9583938707048A0766
:10026000BA9794C30100724405618280411122C68D
:100270000008B7170240984FB717024013674700AE
:1002800098CFB7170240984FB7170240136717006F
:1002900098CFB7070140D443B7070140370700F9AB
:1002A0007D17758FD8C3B7170140938707805967AB
:1002B00098CFB717014093870780196798CFB71772
:1002C000014093870780596798CFB71701409387FC
:1002D00007809C4F0100324441018280411122C6B7
:1002E0000008B71702409843B7170240136717007A
:1002F00098C30100B71702409C43898BE5DFB7170D
:1003000002409443B71702403707FCFF7D17758FF3
:1003100098C3B71702409443B71702404167558FFF
:1003200098C30100B71702409843B7070200F98F3E
:10033000F5DBB71702409443B717024037070800B0
:10034000558F98C3B7170240DC4313F7C7FFB717A1
:10035000024013671700D8C3B71702409443B7177A
:100360000240370700FF7D17758F98C3B71702400B
:10037000DC4313F7F7F0B717024013670708D8C339
:10038000B7270240944BB7270240370700FE7D177E
:10039000758F98CBB7170240DC4313F7F78FB71769
:1003A000024013670740D8C3B7170240D443B717BA
:1003B000024071771307F77F758FD8C3B7170240D4
:1003C000D843D177FD17B376F700B71702402167FE
:1003D000558FD8C3B7170240D443B71702400177EF
:1003E0007D17758FD8C3B7170240D443B7170240A3
:1003F0004167558FD8C3B7170240D443B71702409F
:1004000037073C00558FD8C3B7170240D843B7070A
:1004100040FFFD17B376F700B7170240370780009B
:10042000558FD8C3B7170240D843B70700F9FD1757
:10043000B376F700B717024037070006558FD8C3C9
:10044000B71702409443B717024037070001558F92
:1004500098C3B7170240DC4313F7C7FFB717024032
:1004600013672700D8C30100B71702409843B707A6
:100470000002F98FF5DB0100324441018280411115
:1004800006C622C40008B7F700E09843B7F700E0BB
:10049000799B98C3B7F700E09843B7F700E013677C
:1004A000270098C3B7F700E09843B7F700E06D9BCB
:1004B00098C3B7F700E09843B7F700E013678700E9
:1004C00098C3B7F700E09843B7F700E01367070158
:1004D00098C3B7F700E09843B7F700E01367070247
:1004E00098C337F700E089679387773201481CCBC0
:1004F000232A070131459133B7F700E09843B7F756
:1005000000E01367170098C30100B2402244410184
:100510008280411122C60008B7F700E0D843B7F740
:1005200000E0799BD8C3B707002083A70700138793
:100530001700B707002023A0E700B707002083A714
:10054000470099CBB707002083A747001387F7FF21
:10055000B707002023A2E700B707002083A7870082
:1005600099CBB707002083A787001387F7FFB7074A
:10057000002023A4E7000100324441017300203031
:10058000011122CE00102326A4FEB7070020032766
:10059000C4FE23A2E7000100B707002083A747009D
:1005A000E5FF0100724405618280411122C6000806
:1005B000B7170240984FB71702401367070198CF4B
:1005C000B7170140D843B707D0FFFD17B376F70040
:1005D000B717014037072000558FD8C3B717014020
:1005E000D443B7170140370740FF7D17758FD8C335
:1005F0000100324441018280411122C60008B72720
:1006000002403707674513073712D8C3B7270240A0
:100610003797EFCD1307B79AD8C301003244410191
:100620008280411122C60008B7270240984BB727A5
:1006300002401367070898CB0100324441018280D1
:10064000011106CE22CC0010AA872317F4FEB7278B
:1006500002409C4B93F7070891C3793FB7270240AC
:10066000984BB72702401367270098CBB727024063
:100670000357E4FED8CBB7270240984BB727024078
:100680001367070498CB0100B7270240DC47858B2E
:10069000E5FF0100B7270240DC4793F70702FDDBC7
:1006A000B7270240984BB7270240759B98CB953FE0
:1006B0000100F240624405618280797106D622D43D
:1006C0000018232EA4FC232CB4FCB287231BF4FCBB
:1006D000835764FD858BC207C183DDC3835764FDE7
:1006E0008583231BF4FC8327C4FDC207C1833E8599
:1006F000813FB72702409C4B93F7070891C3ED3D1C
:10070000B7270240984BB72702401367170098CBD2
:10071000232604FE1DA88327C4FE8607032784FD25
:10072000BA970327C4FE0607BA860327C4FD369787
:100730009E231EA30100B7270240DC47858BE5FFFF
:100740008327C4FE85072326F4FE835764FD032711
:10075000C4FEE342F7FC835764FD86073E87832788
:1007600084FDBA979423835764FD86073E878327C9
:10077000C4FDBA973E8793970601C1831EA3B5A80F
:10078000835764FD8583231BF4FC8327C4FDC207C4
:10079000C1833E857535B72702409C4B93F7070808
:1007A00091C3993DB7270240984BB7270240136782
:1007B000170098CB232404FE1DA8832784FE8607F8
:1007C000032784FDBA97032784FE0607BA8603270A
:1007D000C4FD36979E231EA30100B7270240DC47C5
:1007E000858BE5FF832784FE85072324F4FE83574A
:1007F00064FD032784FEE342F7FC0100B7270240B3
:10080000DC47858BE5FF0100B7270240DC4793F703
:100810000702FDDBB7270240984BB7270240799BC0
:1008200098CB01350100B250225445618280797124
:1008300022D60018232EA4FC232CB4FCB287231B41
:10084000F4FC835764FD858BC207C183BDC7835702
:1008500064FD8583231BF4FC231704FE35A0835716
:10086000E4FE86073E878327C4FDBA97BE8683577A
:10087000E4FE8607032784FDBA979A229AA383573A
:10088000E4FE85072317F4FE0357E4FE835764FD57
:10089000E367F7FC835764FD86073E878327C4FD23
:1008A000BA979A23835764FD8607BE86832784FD03
:1008B000B6971377F70F98A3A1A0835764FD85839C
:1008C000231BF4FC231604FE35A08357C4FE8607C1
:1008D0003E878327C4FDBA97BE868357C4FE86072A
:1008E000032784FDBA979A229AA38357C4FE8507EB
:1008F0002316F4FE0357C4FE835764FDE367F7FC39
:100900000100325445618280411106C622C40008AC
:10091000B13AE932AD365139B70700207D57238609
:10092000E700B707002003C7D700018B13677706DE
:10093000A386E70003C7E700018B136757042387EB
:10094000E700B707002003C7F700018B13672701F3
:10095000A387E70003C70181018B13671701238871
:10096000E18003C71181018B13670701A388E18030
:1009700003C72181018B136797F82389E180B707AB
:1009800000209387C7000567032747BB9375F70FC0
:10099000F433818A3686AE86D18EF4B393568700BF
:1009A00093F5F60F9427818A3686AE86D18E94A76A
:1009B0009356070193F5F60F9437818A3686AE86F3
:1009C000D18E94B713568701B827018BBA86328728
:1009D000558FB8A72D46B70700209385C70037F578
:1009E0000008E1392D469385818137F5000881356E
:1009F000B7170140096798CB1305803E5136B717EA
:100A000001403707002098CB1305803E953ECDB7B7
:100A1000411106C622C40008B71702409843B71711
:100A200002401367170098C3B7170240D443B717A3
:100A300002403707FFF8758FD8C3B71702409443B9
:100A4000B71702403707F7FE7D17758F98C3B717A2
:100A500002409443B71702403707FCFF7D17758F9C
:100A600098C3B7170240D443B7170240370781FF36
:100A70007D17758FD8C3B717024037079F0098C7F7
:100A800031200100B240224441018280411106C65A
:100A900022C4000831200100B2402244410182807A
:100AA000011122CE0010232604FE232404FEB717D2
:100AB00002409443B71702404167558F98C3B71758
:100AC00002409843B7070200F98F2324F4FE8327DE
:100AD000C4FE85072326F4FE832784FE91E70327BF
:100AE000C4FE8567E31DF7FCB71702409843B707BC
:100AF0000200F98F89C785472324F4FE19A0232417
:100B000004FE032784FE85476312F70A3717024065
:100B1000B71702405843D8C337170240B7170240EF
:100B20005843D8C3B7170240D843B71702401367DA
:100B30000740D8C3B7170240D443B717024037075E
:100B4000C1FF7D17758FD8C3B7170240D443B717BD
:100B5000024037072900558FD8C3B7170240944386
:100B6000B717024037070001558F98C30100B71728
:100B700002409843B7070002F98FF5DBB717024030
:100B8000D843B7170240719BD8C3B7170240D84368
:100B9000B717024013672700D8C30100B7170240F8
:100BA000DC4313F7C700A147E31AF7FE01007244C4
:080BB00005618280D00F49406D
:00000001FF
