:100000006F00C01A1300000013000000130000006E
:100010001300000013000000130000001300000094
:100020001300000013000000130000001300000084
:08003000130000007300100032
:100038000000000000000000400100004201000034
:100048000000000044010000000000000000000063
:100058004601000048010000000000000000000008
:1000680008050000000000004C010000000000002E
:100078004E01000050010000520100005401000030
:1000880056010000580100003E1400005C01000009
:100098005E0100006001000062010000AA13000078
:1000A80066010000680100006A0100006C010000A0
:1000B8006E01000070010000720100007401000070
:1000C80076010000780100007A0100007C01000040
:1000D8007E01000080010000820100008401000010
:1000E80086010000F01300008A0100008C01000066
:1000F8008E010000900100009201000094010000B0
:1001080096010000021300009A0100009C01000003
:100118009E010000A0010000A2010000A40100004F
:10012800A6010000A8010000AA01000000000000CC
:080138000000000000000000BF
:1001400001A001A001A001A001A001A001A001A0A7
:1001500001A001A001A001A001A001A001A001A097
:1001600001A001A001A001A001A001A001A001A087
:1001700001A001A001A001A001A001A001A001A077
:1001800001A001A001A001A001A001A001A001A067
:1001900001A001A001A001A001A001A001A001A057
:1001A00001A001A001A001A001A001A097010020D1
:1001B00093814165175100201301C1E41715000018
:1001C0001305854C970500209385C5E31386818030
:1001D00063FAC5008322050023A05500110591058F
:1001E000E3EAC5FE138581809385C1846377B500FA
:1001F000232005001105E36DB5FEFD42739002BC9E
:100200008D42739042809302800873A0023097025F
:1002100000009382A2E293E2320073905230EF101A
:10022000202C9712000093820225739012347300E1
:100230002030011122CE00102326A4FE8327C4FE05
:10024000FD8B0547B316F70037E700E08327C4FEB0
:100250009583938707048A07BA9794C30100724471
:1002600005618280411122C60008B7170240984FED
:10027000B71702401367470098CFB7170240984F4F
:10028000B71702401367170098CFB7070140D44350
:10029000B7070140370700F97D17758FD8C3B71727
:1002A000014093870780596798CFB717014093871C
:1002B0000780196798CFB717014093870780596760
:1002C00098CFB7170140938707809C4F01003244B5
:1002D00041018280411122C60008B71702409843AD
:1002E000B71702401367170098C30100B717024001
:1002F0009C43898BE5DFB71702409443B717024050
:100300003707FCFF7D17758F98C3B71702409443DA
:10031000B71702404167558F98C30100B7170240D5
:100320009843B7070200F98FF5DBB71702409443F3
:10033000B717024037070800558F98C3B717024018
:10034000DC4313F7C7FFB717024013671700D8C382
:10035000B71702409443B7170240370700FF7D17D5
:10036000758F98C3B7170240D843B7170240137769
:10037000F7F0D8C3B7270240944BB727024037079E
:1003800000FE7D17758F98CBB7170240D843B7177B
:1003900002401377F78FD8C3B7170240D843F177DD
:1003A0009387F77FB376F700B71702400967558F39
:1003B000D8C3B7170240D843D177FD17B376F700FB
:1003C000B71702402167558FD8C3B7170240D443EF
:1003D000B717024001777D17758FD8C3B717024052
:1003E000D443B71702404167558FD8C3B7170240AF
:1003F000D443B717024037073C00558FD8C3B7170F
:100400000240D843B70740FFFD17B376F700B71790
:10041000024037078000558FD8C3B7170240D84332
:10042000B70700F9FD17B376F700B7170240370793
:100430000006558FD8C3B71702409443B717024040
:1004400037070001558F98C3B7170240DC4313F7F5
:10045000C7FFB717024013672700D8C30100B717BB
:1004600002409843B7070002F98FF5DB01003244E0
:1004700041018280411106C622C40008B7F700E09E
:100480009843B7F700E0799B98C3B7F700E098432B
:10049000B7F700E01367270098C3B7F700E0984369
:1004A000B7F700E06D9B98C3B7F700E09843B7F744
:1004B00000E01367870098C3B7F700E09843B7F7E9
:1004C00000E01367070198C3B7F700E09843B7F758
:1004D00000E01367070298C337F700E0916793873E
:1004E000F76401481CCB232A070131459933B7F73C
:1004F00000E09843B7F700E01367170098C30100C6
:10050000B240224441018280411122C60008B7F75F
:1005100000E0D843B7F700E0799BD8C3B7070020C5
:1005200083A7870013871700B707002023A4E700DD
:1005300083A7C18099C783A7C1801387F7FF23A62C
:10054000E18083A7018199C783A701811387F7FF02
:1005500023A8E180010032444101730020300111E1
:1005600022CE00102326A4FE0327C4FE23A6E1808A
:10057000010083A7C180F5FF0100724405618280FC
:10058000411122C60008B7170240984FB717024022
:100590001367070198CFB7170140D843B707D0FFBB
:1005A000FD17B376F700B717014037072000558FC6
:1005B000D8C3B7170140D443B7170140370740FFEE
:1005C0007D17758FD8C301003244410182804111EB
:1005D00022C60008B7170240D843B70700F9FD1735
:1005E000B376F700B717024037070004558FD8C31A
:1005F000B7170240984FB71702401367470098CFCC
:10060000B717014093870780D843B71701409387F6
:10061000078013673700D8C3B71701409387078057
:10062000DC4313F737FFB717014093870780136741
:100630008700D8C30100324441018280411106C6BF
:1006400022C40008B7170240984FB717024013673B
:10065000170098CFB70701409C4713F707FFB7076C
:1006600001401367170098C7B7170240984FB71794
:1006700002401367870098CFB7170140938707C0E0
:100680009C4313F737FFB7170140938707C01367E1
:10069000870098C3B7170140938707C09843B717DF
:1006A0000140938707C0719B98C3B7170140938798
:1006B00007C0416798CBB70701409387074098432D
:1006C000B7070140938707401367170098C3B70720
:1006D0000140938707409847B70701409387074039
:1006E0001367170098C7B707014093870740D8479B
:1006F000B70701409387074013671700D8C75945CC
:100700000D3E0100B240224441018280411106C6E3
:1007100022C40008B7170240D84FB717024013672A
:100720002700D8CFB7170240984FB717024013677A
:10073000170098CFB7070040938707409E23139771
:1007400007014183B707004093870740759B420725
:1007500041839AA3B7070040938707409E231397CE
:1007600007014183B7070040938707406D9B42070D
:1007700041839AA3B7070040938707409E231397AE
:1007800007014183B7070040938707405D9B4207FD
:1007900041839AA3B7070040938707409E2313978E
:1007A00007014183B7070040938707403D9B4207FD
:1007B00041839AA3B7070040938707409E2313976E
:1007C00007014183B7070040938707401377F7F984
:1007D000420741839AA3B7070040938707409E23AF
:1007E000139707014183B7070040938707401367BA
:1007F0000708420741839AA3B70700409387074041
:100800009E23139707014183B70700409387074052
:100810001377F7CF420741839AA3B7070040938726
:100820000740DE27139707014183B70700409387EE
:1008300007401367170042074183DAA7B707004054
:100840009387074011671307F7839AB7B7070040EC
:10085000938707402547DAB71305D002D93AB7077F
:100860000040938707409E23139707014183B707F2
:1008700000409387074013671700420741839AA3FC
:100880000100B240224441018280411122C6000889
:10089000B7170240984FB71702401367470098CF29
:1008A000B7170140938707809843B70700F4FD17F7
:1008B000B376F700B7170140938707803707000822
:1008C000558F98C3B7170140938707809443B71794
:1008D00001409387078037070003558F98C3B707F8
:1008E0000040938707409E2F139707014183B70766
:1008F000004093870740719B420741839AAFB70737
:100900000040938707409E2F139707014183B70745
:100910000040938707406D9B420741839AAFB7071A
:100920000040938707409E2F139707014183B70725
:1009300000409387074013678700420741839AAFBF
:10094000B7070040938707409E2FC207C183C207A5
:10095000C18793F7F7F8C207C18793E70706139794
:1009600007014187B707004093870740420741834B
:100970009AAFB7070040938707409E2F1397070150
:100980004183B7070040938707401377F7F7420783
:1009900041839AAFB7070040938707409E33139770
:1009A00007014183B707004093870740136717008B
:1009B000420741839AB3B7070040938707409E33AD
:1009C000139707014183B7070040938707401367D8
:1009D0002700420741839AB3B70700409387074037
:1009E0001547DABB0100324441018280411122C621
:1009F0000008B7170240984FB71702401367470027
:100A000098CFB7170140938707809843B7070040F6
:100A1000FD17B376F700B7170140938707803707B4
:100A20000080558F98C3B717014093870780944380
:100A3000B71701409387078037070030558F98C359
:100A4000B7070040938707409E2F13970701418304
:100A5000B7070040938707401377F7CF42074183DA
:100A60009AAFB7070040938707409E2F139707015F
:100A70004183B7070040938707401377F7BF4207CA
:100A800041839AAFB7070040938707409E2F939604
:100A90000701C182B7070040938707400567130726
:100AA0000780558F420741839AAFB707004093876D
:100AB00007409E2FC207C183139707014187E5773F
:100AC000FD17F98F1397070141879967D98F1397FE
:100AD00007014187B70700409387074042074183DA
:100AE0009AAFB7070040938707409E2F9396070160
:100AF000C182B70700409387074021677D17758F34
:100B0000420741839AAFB7070040938707409E335F
:100B1000139707014183B707004093870740136786
:100B20000701420741839AB3B70700409387074004
:100B30009E33139707014183B7070040938707400F
:100B40001377F7FD420741839AB3B70700409387B5
:100B5000074015479ABF010032444101828041118C
:100B600006C622C40008B7170240D84BB717024088
:100B700013671700D8CBB7070240A10737270140FA
:100B80001307C74498C7B7070240A10713874181DD
:100B9000D8C7B7070240A1070947D8C3B707024023
:100BA000A1079443B7070240A10775777D17758F9A
:100BB00098C3B7070240A1079843B7070240A107AF
:100BC0003D9B98C3B7070240A1079843B70702406F
:100BD000A1071367070298C3B7070240A1079C4308
:100BE00013F7F7CFB7070240A1071367071098C3A1
:100BF000B7070240A1079843FD779387F73F7D8FA2
:100C0000B7070240A1071367074098C3B707024020
:100C1000A1079843B7070240A1071367270098C3AD
:100C2000B7070240A1079843B7070240A1076D9B91
:100C300098C3B7070240A1079843B7070240A1072E
:100C40001367870098C3B7070240A1079843B70707
:100C50000240A1071367070898C3B7070240A1071E
:100C60009843B7070240A1071367170098C36D4563
:100C7000EFF02FDCB7170240984FB7170240136709
:100C8000072098CFB7170240984FB7170240136755
:100C9000470098CFB7170140938707809843B7174D
:100CA0000140938707804D9B98C3B71701409387F6
:100CB00007809843B717014093870780719B98C3BB
:100CC000B7170140938707809843B7170140938770
:100CD00007801377F7F398C3B7170140938707800E
:100CE0009843B7170140938707801377F7FC98C3A1
:100CF000B727014093870740D843B7270140938720
:100D000007401377F7FDD8C3B72701409387074003
:100D1000D843B7270140938707401377F7FBD8C321
:100D2000B727014093870740D843B72701409387EF
:100D300007401377F7F7D8C3B727014093870740D9
:100D4000D843B72701409387074013670710D8C3DC
:100D5000B727014093870740D843B72701409387BF
:100D600007401377F7DFD8C3B727014093870740C1
:100D7000D843B7270140938707401377F7BFD8C3FD
:100D8000B727014093870740D443B7270140938793
:100D900007407D771307F77F758FD8C3B7270140CA
:100DA00093870740D443B7270140938707407D7757
:100DB0007D17758FD8C3B727014093870740D84365
:100DC000B707F1FFFD17B376F700B7270140938708
:100DD000074037070600558FD8C3B72701409387D0
:100DE0000740D443B7270140938707403707C0FF28
:100DF0007D17758FD8C3B727014093870740D44329
:100E0000B727014093870740370780FF7D17758F0D
:100E1000D8C3B7270140938707409847B7270140B9
:100E2000938707401367170098C7B7270140938738
:100E300007409847B727014093870740136727006B
:100E400098C7B7270140938707409847B7270140C5
:100E5000938707401367470098C70100B7270140F1
:100E6000938707409C47918BF5FBB72701409387F9
:100E700007409847B727014093870740136707103B
:100E800098C7B7270140938707409447B727014089
:100E9000938707407D771307F77F758F98C7B7272C
:100EA0000140938707409447B72701409387074045
:100EB00037070E00558F98C7B72701409387074023
:100EC0009447B7270140938707403707F0FF7D1706
:100ED000758F98C7B727014093870740984BB7276E
:100EE0000140938707401367770098CBB7270140ED
:100EF00093870740984BB7270140938707401367B4
:100F0000870398CBB727014093870740D857B70787
:100F100010FFFD17B376F700B7270140938707400E
:100F200037071000558FD8D7B72701409387074060
:100F3000D85BB727014093870740019BD8DBB727D1
:100F4000014093870740DC5B13F7F7C1B7270140E7
:100F50009387074013670702D8DB0100B2402244A1
:100F600041018280411106C622C40008B717024021
:100F7000984FB71702401367470098CFB717024042
:100F8000984FB71702401367170098CFB717014063
:100F900093870780DC4313F7F7F3B7170140938774
:100FA000078013670708D8C3B717014093870780E6
:100FB000D843B71701409387078013670703D8C347
:100FC000B717014093870780D843FD779387F73F92
:100FD0007D8FB71701409387078013670740D8C3F9
:100FE000B717014093870780D843B717014093870D
:100FF00007801377F7CFD8C3B7170240944FB717BE
:1010000002401167558F98CFB747014093870780FB
:101010009E27C207C183C207C187BD8B13970701F3
:1010200041878967938707D4D98F13970701418731
:10103000B747014093870780420741839AA7B74784
:101040000140938707809E27C207C183C207C187DB
:1010500093F707F3C207C18793E7070C13970701BC
:101060004187B747014093870780420741839AA78A
:10107000B747014093870780DE2793960701C18217
:10108000B7470140938707800967558F420741831F
:10109000DAA7B747014093870780DE2793960701B9
:1010A000C182B7470140938707807D777D17758F91
:1010B00042074183DAA7B747014093870780DE27BD
:1010C00093960701C182B7470140938707807D77D8
:1010D0001307F77F758F42074183DAA7B7470140AF
:1010E00093870780DE27139707014183B7470140A5
:1010F000938707801377F7BF42074183DAA7B74783
:10110000014093870780DE27139707014183B74784
:101110000140938707801377F7EF42074183DAA7EF
:10112000B747014093870780DE2713970701418364
:10113000B7470140938707801377F7F7420741834A
:10114000DAA7B747014093870780DE271397070187
:101150004183B7470140938707801377F7FB420726
:101160004183DAA7B747014093870780DE271397AB
:1011700007014183B7470140938707801367070240
:1011800042074183DAA7B747014093870780DE27EC
:10119000139707014183B74701409387078013677F
:1011A000070142074183DAA7B747014093870780C9
:1011B000DE27139707014183B747014093870780D4
:1011C0001367870042074183DAA7B7470140938737
:1011D0000780DE27139707014183B74701409387B4
:1011E00007801367470042074183DAA7B7470140EA
:1011F00093870780DE27139707014183B747014094
:1012000093870780759B42074183DAA7B747014060
:1012100093870780DE27139707014183B747014073
:1012200093870780799B42074183DAA7B74701403C
:101230009387078023980700B7470140938707806B
:101240009E2B93960701C182B74701409387078081
:1012500075777D17758F420741839AABB747014079
:1012600093870780239A0700B74701409387078039
:10127000239C070013055003EFE0BFFB0100B240C1
:10128000224441018280797122D60018232EA4FCC9
:10129000232CB4FCB2872328D4FC231BF4FC231793
:1012A00004FEA9A0032704FD23A8E18031A083A7A1
:1012B000018199E3814791A08327C4FD9E23C20742
:1012C000C18393F70708E5D7832784FD13871700A9
:1012D000232CE4FC9C231397070141838327C4FD3F
:1012E000DAA38357E4FE85072317F4FE0357E4FED1
:1012F000835764FDE368F7FA85473E8532544561BC
:101300008280411122C60008B747014093870780B9
:101310009E23C207C18393F70702A9C7B7470140BD
:1013200093870780DE23139707014183B7070020C7
:10133000938707029E37BE861377F70FB707002003
:1013400093870702B697D8ABB707002093870702A9
:101350009E378507139707014183B70700209387BE
:1013600007029AB7B7470140938707809E23C207B9
:10137000C183C18B95C7B747014093870780DE23A0
:10138000B7070020938707029A37B7070020938793
:101390000702BAB7B7070020938707022394070212
:1013A00001003244410173002030411122C600087F
:1013B000B70702409C43898B91CBB7070240D843C3
:1013C000B707024013671700D8C331A8B707024018
:1013D0009C43A18B89CBB7070240D843B707024093
:1013E00013671700D8C30100324441017300203055
:1013F000411122C60008B7070040938707409E2B83
:10140000C207C183858B9DC7B707004093870740FC
:101410009E2B139707014183B7070040938707402E
:10142000799B420741839AAB83A781811387170079
:1014300023ACE180010032444101730020304111AE
:1014400022C60008B707014093870740D84BB7076B
:1014500001409387074013671700D8CB83A7C1814A
:101460001387170023AEE18001003244410173006D
:101470002030411106C622C40008EFE0BFDEEFE0D5
:101480007FE5EFE03FFFEFF0AF8FEFF04F94EFF02D
:10149000EFA7EFF08FBFEFF06FD5EFF02F9AEFF0DF
:1014A0000FECC934B7170140096798CB1305803E8C
:1014B000EFF0EF8AB71701403707002098CB1305EC
:1014C000803EEFF0CF89930640061946B70700200B
:1014D00093850700B7470140138507806D33D9B75F
:1014E000411106C622C40008B71702409843B71737
:1014F00002401367170098C3B7170240D443B717C9
:1015000002403707FFF8758FD8C3B71702409443DE
:10151000B71702403707F7FE7D17758F98C3B717C7
:1015200002409443B71702403707FCFF7D17758FC1
:1015300098C3B7170240D443B7170240370781FF5B
:101540007D17758FD8C3B717024037079F0098C71C
:1015500031200100B240224441018280411106C67F
:1015600022C4000831200100B2402244410182809F
:10157000011122CE0010232604FE232404FEB717F7
:1015800002409443B71702404167558F98C3B7177D
:1015900002409843B7070200F98F2324F4FE832703
:1015A000C4FE85072326F4FE832784FE91E70327E4
:1015B000C4FE8567E31DF7FCB71702409843B707E1
:1015C0000200F98F89C785472324F4FE19A023243C
:1015D00004FE032784FE85476312F70A371702408B
:1015E000B71702405843D8C337170240B717024015
:1015F0005843D8C3B7170240D843B7170240136700
:101600000740D8C3B7170240D443B7170240370783
:10161000C1FF7D17758FD8C3B7170240D443B717E2
:10162000024037072900558FD8C3B71702409443AB
:10163000B717024037070001558F98C30100B7174D
:1016400002409843B7070002F98FF5DBB717024055
:10165000D843B7170240719BD8C3B7170240D8438D
:10166000B717024013672700D8C30100B71702401D
:10167000DC4313F7C700A147E31AF7FE01007244E9
:0416800005618280FE
:0816840004080F10172A0000F2
:00000001FF
