:100000006F10D02D1300000013000000130000003B
:100010001300000013000000130000001300000094
:100020001300000013000000130000001300000084
:08003000130000007300100032
:100038000000000000000000701A0000721A0000A2
:1000480000000000741A000000000000000000001A
:10005800761A0000781A0000000000000000000076
:10006800301C0000000000007C1A000000000000A6
:100078007E1A0000801A0000821A0000841A00000C
:10008800861A0000881A00008A1A00008C1A0000DC
:100098008E1A0000901A0000921A0000941A0000AC
:1000A800961A0000981A00009A1A00009C1A00007C
:1000B8009E1A0000A01A0000A21A0000A41A00004C
:1000C800A61A0000A81A0000AA1A0000AC1A00001C
:1000D800AE1A0000B01A0000B21A0000B41A0000EC
:1000E800B61A00000A1F00000A470000BC1A0000E8
:1000F800BE1A0000C01A0000C21A0000C41A00008C
:10010800C61A0000001D0000AE1D00005C1E0000A5
:10011800CE1A0000D01A0000D21A0000D41A00002B
:10012800D61A0000D81A0000DA1A000000000000F1
:080138000000000000000000BF
:100140003D432A876373C3029377F700BDEFADE5A4
:10015000937606FF3D8ABA960CC34CC30CC74CC7B6
:100160004107E36BD7FE11E28280B306C3408A06E3
:100170009702000096966780A6002307B700A306A3
:10018000B7002306B700A305B7002305B700A304F3
:10019000B7002304B700A303B7002303B700A302EB
:1001A000B7002302B700A301B7002301B700A300E3
:1001B000B7002300B700828093F5F50F9396850072
:1001C000D58D93960501D58D61B79396270097023B
:1001D000000096968682E78086FA9680C1171D8F6A
:1001E0003E96E374C3F8A5B7011106CE22CC0010E9
:1001F000D922232604FE3DA08327C4FE93869710B0
:100200009D67138787A98327C4FEBA979823B707EA
:1002100000209387C722B69798A38327C4FE85073B
:100220002326F4FE0327C4FE93070017E3D6E7FC5A
:100230004526996793858741B70700201385C71A1C
:10024000EF50A075B70700201387C71A81460546EF
:10025000930580024145EF00F00099679385C742FE
:10026000B70700201385C71AEF502073B707002087
:100270001387C71A81460546930500034945EF00D9
:10028000607E1305401FEF20C00C992685671385FB
:1002900087BBEF20000C996793850744B7070020C0
:1002A0001385C71AEF50606FB70700201387C71A6E
:1002B00081460546930500034945EF00A07A1305E2
:1002C000401FEF2000092926996793850744B70747
:1002D00000201385C71AEF50406CB7070020138722
:1002E000C71A81460546930580024145EF00807795
:1002F0001305401FEF20E005E12C232404FE0DA090
:10030000832784FE13879710B70700209387C7229F
:10031000BA9723800700832784FE85072324F4FEF1
:10032000032784FE93070017E3DCE7FC552413053D
:10033000401FEF2000024120612C0100F240624486
:1003400005618280011106CE22CC0010AA87A30786
:10035000F4FEB7170140938707803707040098CB56
:100360009307F4FE930640060546BE8537350140E7
:10037000EF307002B717014093870780114798CB81
:100380000100F240624405618280011106CE22CC58
:100390000010AA87A307F4FE9307F4FE9306400615
:1003A0000546BE8537350140EF30E07E0100F24062
:1003B000624405618280411106C622C4000813060A
:1003C00000408145B70700201385C722953B0100F7
:1003D000B240224441018280411106C622C4000875
:1003E000B7170140938707803707100098CBB717DE
:1003F0000140938707803707080098CB2945EF1005
:100400005075B717014093870780214798CB29453E
:10041000EF1030741305200A35370545EF1070735F
:100420001305000A05371305800C293F0545EF1019
:1004300050721305700239370545EF10907113059E
:10044000F00209370545EF10D07013051008DD3DA7
:100450004945CD3D0545EF10D06F13050004DD354E
:100460000545EF10106F1305F00AE93D1305600A0A
:10047000D13D0545EF10F06DB71701409387078018
:10048000414798CB0100B2402244410182807971FA
:1004900022D60018AA87AE863287231FF4FCB687BF
:1004A000231EF4FCBA87A30DF4FC8317E4FD370781
:1004B00000200347071363D9E7108317E4FD63C5E2
:1004C00007108317C4FD370700200347171363DDA8
:1004D000E70E8317C4FD63C9070E8317C4FD13D746
:1004E000F7411D8BBA978D87C207C1871397070104
:1004F0004183B707002083C70713C207C183B3072F
:10050000F7021397070141838357E4FDBA97231736
:10051000F4FE8347B4FDB9CB0357E4FEB7070020D0
:100520009387C722BA979C2393968701E186031786
:10053000C4FD9357F741F5833E971D8BB307F740F2
:10054000C207C1873E878547B397E700E207E18787
:10055000D58FE207E1878356E4FE13F7F70FB7075D
:1005600000209387C722B69798A385A00357E4FE7F
:10057000B70700209387C722BA979C2393968701D9
:10058000E1860317C4FD9357F741F5833E971D8B12
:10059000B307F740C207C1873E878547B397E70097
:1005A000E207E18793C7F7FFE207E187F58FE207EC
:1005B000E1878356E4FE13F7F70FB7070020938710
:1005C000C722B69798A311A00100325445618280DA
:1005D000011106CE22CC0010B71701409387078087
:1005E0003707100098CBA30704FE8DA04145993B27
:1005F0000145893B8307F4FE9D8BE207E18793E782
:1006000007FBE207E18793F7F70F3E85253B2307BA
:1006100004FE25A00347E4FE8347F4FE9E073E97B1
:10062000B70700209387C722BA979C233E85B13B2A
:100630008347E4FE85072307F4FE8307E4FEE3DB3C
:1006400007FC8347F4FE8507A307F4FE0347F4FE87
:100650009D47E3FDE7F8B7170140938707804147BF
:1006600098CB0100F240624405618280797106D620
:1006700022D40018AA873687A30FF4FCAE87230F75
:10068000F4FCB287231EF4FCBA87A30DF4FC834765
:10069000F4FD2306F4FE8347F4FD9507A305F4FE5D
:1006A0008347C4FEA307F4FE6DA20347F4FE83470D
:1006B000B4FE6312F708230704FE85A88347B4FD40
:1006C0008DCB8347F4FE93960701C1868347E4FDF3
:1006D0001397070141838347E4FEC207C183BA979A
:1006E000C207C183C207C1870546BE85368545332B
:1006F00005A88347F4FE93960701C1868347E4FD6E
:100700001397070141838347E4FEC207C183BA9769
:10071000C207C183C207C1870146BE853685853BB6
:100720008347E4FE85072307F4FE0347E4FE994769
:10073000E3F6E7F811AAA30604FE11A20357C4FDCD
:10074000BA878A073E978347F4FE3E978347C4FEE5
:100750001D8F99679387C776BA979C233E878347F7
:10076000D4FEB357F740858BA5C78347B4FD8DCB27
:100770008347F4FE93960701C1868347E4FD1397F0
:10078000070141838347D4FEC207C183BA97C207DA
:10079000C183C207C1870146BE853685CD3959A8B8
:1007A0008347F4FE93960701C1868347E4FD1397C0
:1007B000070141838347D4FEC207C183BA97C207AA
:1007C000C183C207C1870546BE853685C9319DA054
:1007D0008347B4FD8DCB8347F4FE93960701C18612
:1007E0008347E4FD1397070141838347D4FEC20783
:1007F000C183BA97C207C183C207C1870546BE85B8
:100800003685713105A88347F4FE93960701C186AA
:100810008347E4FD1397070141838347D4FEC20752
:10082000C183BA97C207C183C207C1870146BE858B
:100830003685B1398347D4FE8507A306F4FE034706
:10084000D4FE9947E3FCE7EE8347F4FE8507A30750
:10085000F4FE0347F4FE8347B4FEE3F8E7E4010047
:10086000B250225445618280797106D622D4001894
:10087000AA873687A30FF4FCAE87230FF4FCB28758
:10088000231EF4FCBA87A30DF4FC8347F4FD230672
:10089000F4FE8347F4FD8D07A305F4FE8347C4FEF1
:1008A000A307F4FE6DA20347F4FE8347B4FE631270
:1008B000F708230704FE85A88347B4FD8DCB834743
:1008C000F4FE93960701C1868347E4FD1397070161
:1008D00041838347E4FEC207C183BA97C207C1833D
:1008E000C207C1870546BE853685553605A88347AC
:1008F000F4FE93960701C1868347E4FD1397070131
:1009000041838347E4FEC207C183BA97C207C1830C
:10091000C207C1870146BE853685953E8347E4FE02
:1009200085072307F4FE0347E4FE9147E3F6E7F863
:1009300011AAA30604FE11A20357C4FDBA878607B5
:100940003E978347F4FE3E978347C4FE1D8F996709
:1009500093874758BA979C233E878347D4FEB35763
:10096000F740858BA5C78347B4FD8DCB8347F4FE45
:1009700093960701C1868347E4FD139707014183DE
:100980008347D4FEC207C183BA97C207C183C20797
:10099000C1870146BE853685DD3C59A88347F4FEF4
:1009A00093960701C1868347E4FD139707014183AE
:1009B0008347D4FEC207C183BA97C207C183C20767
:1009C000C1870546BE853685D9349DA08347B4FDD1
:1009D0008DCB8347F4FE93960701C1868347E4FDE0
:1009E0001397070141838347D4FEC207C183BA9797
:1009F000C207C183C207C1870546BE853685413C13
:100A000005A88347F4FE93960701C1868347E4FD5A
:100A10001397070141838347D4FEC207C183BA9766
:100A2000C207C183C207C1870146BE8536858534AA
:100A30008347D4FE8507A306F4FE0347D4FE9147FF
:100A4000E3FCE7EE8347F4FE8507A307F4FE0347C4
:100A5000F4FE8347B4FEE3F8E7E40100B250225409
:100A600045618280797106D622D40018AA87232C8A
:100A7000E4FCA30FF4FCAE87230FF4FCB287A30EB3
:100A8000F4FCB687230EF4FC231304FEA30704FE34
:100A9000232404FE59A1832784FE032784FDBA97EB
:100AA00098239307F00B63E4E70C8347F4FE81C7B8
:100AB000A30704FEB1A9832784FE032784FDBA9708
:100AC0009C232313F4FE8347D4FDB9E78347C4FD79
:100AD00085C3835764FE811713960701418203473C
:100AE000E4FD8347F4FD8546BA853E85B53B39A8CC
:100AF000835764FE81171396070141820347E4FD83
:100B00008347F4FD8146BA853E85B93B8347F4FDB2
:100B10009107A30FF4FCEDAE0347D4FD854763199D
:100B2000F73E8347C4FD85C3835764FE8117139640
:100B3000070141820347E4FD8347F4FD8546BA85FA
:100B40003E852D3639A8835764FE81171396070119
:100B500041820347E4FD8347F4FD8146BA853E8523
:100B600031368347F4FD9907A30FF4FC55A683277C
:100B700084FE032784FDBA979C23A20713970701DD
:100B80004187832784FE8507832684FDB6979C23AF
:100B9000C207C187D98FC207C1872313F4FE035749
:100BA00064FEB5679387F71763E9E70C035764FEA4
:100BB000B5679387170863F2E70C8347D4FDA9EF65
:100BC0008347C4FD9DC3035764FE8D679387F7FC7D
:100BD000BA971396070141820347E4FD8347F4FD6A
:100BE0008546BA853E85493115A0035764FE8D6759
:100BF0009387F7FCBA971396070141820347E4FDF8
:100C00008347F4FD8146BA853E85B9398347F4FDB3
:100C10009107A30FF4FCCDAC0347D4FD85476315C2
:100C2000F72E8347C4FD9DC3035764FE8D679387EA
:100C3000F7FCBA971396070141820347E4FD834707
:100C4000F4FD8546BA853E85153415A0035764FE2C
:100C50008D679387F7FCBA97139607014182034784
:100C6000E4FD8347F4FD8146BA853E850134834720
:100C7000F4FD9907A30FF4FC41AC035764FEB5677C
:100C8000938717086316F7088347D4FD9DEF8347C2
:100C9000C4FD81CF0347E4FD8347F4FD8546130679
:100CA000F009BA853E85C93619A80347E4FD834794
:100CB000F4FD81461306F009BA853E8575368347F3
:100CC000F4FD9107A30FF4FC89A40347D4FD8547E5
:100CD000631DF7228347C4FD81CF0347E4FD8347AB
:100CE000F4FD85461306F009BA853E85413219A800
:100CF0000347E4FD8347F4FD81461306F009BA85F6
:100D00003E85AD328347F4FD9907A30FF4FCF5AAA5
:100D1000035764FEB567938717196318F70883476D
:100D2000D4FD9DEF8347C4FD81CF0347E4FD834796
:100D3000F4FD85461306000ABA853E85353619A8A6
:100D40000347E4FD8347F4FD81461306000ABA8594
:100D50003E85193E8347F4FD9107A30FF4FC75A26D
:100D60000347D4FD85476312F71A8347C4FD89CF33
:100D70000347E4FD8347F4FD85461306000ABA8560
:100D80003E85EFF0BF8E21A80347E4FD8347F4FDC5
:100D900081461306000ABA853E85EFF03F8D8347F2
:100DA000F4FD9907A30FF4FC8DA2035764FEB1670D
:100DB0009387072B6318F7088347D4FD9DEF83477C
:100DC000C4FD81CF0347E4FD8347F4FD8546130648
:100DD000100ABA853E85493C19A80347E4FD8347BC
:100DE000F4FD81461306100ABA853E85B53C83475B
:100DF000F4FD9107A30FF4FC09AA0347D4FD85472E
:100E00006315F7108347C4FD89CF0347E4FD83478B
:100E1000F4FD85461306100ABA853E85EFF01F855E
:100E200021A80347E4FD8347F4FD81461306100A19
:100E3000BA853E85EFF09F838347F4FD9907A30FA2
:100E4000F4FCE1A08347D4FDA9EF8347C4FD9DC313
:100E5000035764FE8D679387F7F0BA9713960701DF
:100E600041820347E4FD8347F4FD8546BA853E850C
:100E7000E53A15A0035764FE8D679387F7F0BA979C
:100E80001396070141820347E4FD8347F4FD814641
:100E9000BA853E85D13A8347F4FD9107A30FF4FC50
:100EA000ADA00347D4FD85476311F7068347C4FD12
:100EB00085C7035764FE8D679387F7F0BA9713963B
:100EC000070141820347E4FD8347F4FD8546BA8567
:100ED0003E85EFF0AFF91DA0035764FE8D67938741
:100EE000F7F0BA971396070141820347E4FD834761
:100EF000F4FD8146BA853E85EFF04FF78347F4FD58
:100F00009907A30FF4FC11A001008547A307F4FE85
:100F1000832784FE85072324F4FE032584FDEF4008
:100F2000102C2A87832784FEE3E7E7B60100B2503E
:100F3000225445618280397106DE22DC26DA800087
:100F40002326A4FC2324B4FC2322C4FC232A04FC6F
:100F5000232C04FC232E04FC232004FE232204FE65
:100F6000A30704FE032784FC8327C4FC63D0E70A9D
:100F70000325C4FCEF405002AA87BE85032544FC2C
:100F8000EF406003AA8763C30708032584FCEF4092
:100F9000B000AA87BE85032544FCEF40200AAA873B
:100FA0006346F006032584FCEF40007FAA87832573
:100FB00044FC3E85EF40403AAA87BE84032784FC68
:100FC0008327C4FCB307F7403E85EF40E07C2A87C7
:100FD0009967BA8503A58749EF30D052AA87BE85A5
:100FE0002685EF40600EAA873E879967BA8503A5DC
:100FF0008749EF406036AA872324F4FE032584FE48
:10100000EF402074AA87A307F4FE41A8032584FCBF
:10101000EF408078AA87BE85032544FCEF30B07985
:10102000AA87635AF00293072003A307F4FE13076D
:1010300044FD9967938547453A85EF40101693071D
:1010400044FD3E8781460546E94513055002193C9B
:10105000EFF00FD899A00325C4FCEF40E073AA87F6
:10106000BE85032544FCEF30707DAA8763D7070255
:10107000A30704FE130744FD9967938547453A8506
:10108000EF40B011930744FD3E8781460546E94590
:1010900013055002C13AEFF0AFD38347F4FE3E850B
:1010A000F2506254D25421618280797122D60018A4
:1010B000232EA4FC232CB4FCB2872328D4FCA30B3E
:1010C000F4FCBA87230BF4FC8327C4FD9C2391E72F
:1010D000832784FD034764FD98A38327C4FD9C23D5
:1010E000F9CF8327C4FD9C23034774FD63FBE70608
:1010F000232604FEB1A88327C4FD9C233E878327B3
:10110000C4FE6398E700832784FD034764FD98A32A
:101110001DA88327C4FD9C233E878327C4FEB307F5
:10112000F740FD17032784FD3E978327C4FD9C23CA
:10113000BE868327C4FEB387F640BE86832784FD20
:10114000B697182398A38327C4FE85072326F4FEA9
:101150008327C4FD9C233E878327C4FEE35DF7F805
:10116000B9A88327C4FD9C23034774FD63E9E70402
:10117000834774FDFD172324F4FE35A8832784FEDE
:10118000FD17032784FD3E97832784FE832684FD75
:10119000B697182398A3832784FE89EB832784FEC0
:1011A000032784FDBA97034764FD98A3832784FE31
:1011B000FD172324F4FE832784FEE3D107FC832755
:1011C000C4FD9C23850713F7F70F8327C4FD98A35D
:1011D0008327C4FD98239307A00F6317F700832785
:1011E000C4FD130700F898A38327C4FD9C2303477D
:1011F00074FD636DF7008327C4FD9C23034774FDD2
:101200006316F700832704FD054798A301003254B5
:10121000456182801D7186CEA2CC8010232EA4FA57
:10122000232CB4FA2328D4FA2326E4FA2324F4FA4C
:10123000C2864687B287A30BF4FAB687230BF4FA6B
:10124000BA87A30AF4FA8327C4FA2326F4FE832775
:1012500084FA2324F4FE8327C4FA63D80700832783
:10126000C4FEB307F0402326F4FE832784FA63D834
:101270000700832784FEB307F0402324F4FE0327EE
:10128000C4FE832784FE3E979547B347F702232A7F
:10129000F4FC232004FC232204FC232404FC232646
:1012A00004FC232804FCEFF00F91130704FC032631
:1012B000C4FA9967938547463A85EF40006E9307D5
:1012C00004FC3E8781460146930500032145EFF06B
:1012D0006FF90327C4FA832744FDBA97130704FC68
:1012E0003E869967938547463A85EF40006B9307A2
:1012F00004FC3E8781460146930560022145EFF0DC
:101300006FF6832744FD139717008327C4FABA9713
:10131000130704FC3E869967938547463A85EF405C
:10132000C067930704FC3E8781460146F14521458D
:10133000EFF04FF3032744FDBA8786073E978327D4
:10134000C4FABA97130704FC3E869967938547460B
:101350003A85EF408064930704FC3E87814601464E
:10136000C9452145EFF00FF0832744FD139727006F
:101370008327C4FABA97130704FC3E8699679385BE
:1013800047463A85EF406061930704FC3E878146FB
:101390000146A1452145EFF0EFEC130704FC0326BD
:1013A00084FA9967938547463A85EF40005F930733
:1013B00004FC3E878146014681452145EFF08FEAD6
:1013C000834754FB89EF834764FB130704FC3E8685
:1013D00099679385C7463A85EF40205C91A0034703
:1013E00054FB8547631EF700834764FB130704FC27
:1013F0003E869967938587473A85EF40005A0DA04E
:10140000034754FB8947631DF700834764FB1307B9
:1014100004FC3E869967938587483A85EF40E057FC
:10142000930704FC3E878146054693059003130508
:101430000005EFF02FE30547930620031306F0079E
:10144000930520036D45152EED47A303F4FE0DA073
:10145000034674FE834774FE0547930640039305D5
:1014600030033E85192E834774FEA907A303F4FEBB
:10147000034774FE9307D004E3FCE7FC9307700571
:101480002303F4FE05A0834764FEC207C187054617
:10149000930530033E85EFE09FFF834764FEA90775
:1014A0002303F4FE830764FEE3DF07FC054793068E
:1014B00020036D4681456D45C924A30204FE39A869
:1014C000834654FE834754FE05476D46BE856545F9
:1014D0006D24834754FEA907A302F4FE034754FE7C
:1014E00093072003E3FEE7FC05479306700313060A
:1014F00070059305500313057005412405479306B5
:101500007003130610069305500313051006B52447
:1015100005479306600313066006930560031305F1
:101520002005A12C0547930680031306400593056B
:1015300040031305400591240547930670031306E5
:1015400050059305500313055005052C05479306D8
:101550007003130630069305500313053006312C33
:1015600005479306800313064006930540031305C1
:10157000400621240547930690031306F0079305C0
:1015800050031305F007D52A054793067003130689
:10159000F007930570031305A007C52205479306BE
:1015A00090031306C007930550031305C007F122EB
:1015B0000547930680031306D007930560031305C0
:1015C000D007652A1C20CDC3230204FE81A0ED476D
:1015D000A301F4FE1DA0834734FEC207C187034761
:1015E00044FE420741870546BA853E85EFE03FEA63
:1015F000834734FE8907A301F4FE830734FEE3DC4E
:1016000007FC834744FEA9072302F4FE034744FE78
:1016100093078002E3FDE7FAED472301F4FE89A07A
:10162000A30004FE1DA0834724FEC207C187034711
:1016300014FE420741870546BA853E85EFE03FE547
:10164000834714FE8907A300F4FE034714FE9307A3
:101650002003E3FAE7FC834724FEA9072301F4FEF5
:10166000830724FEE3DE07FA832704FB9C23C9C318
:10167000232E04FCB5A08327C4FD93F7F70F1307AF
:10168000E007B307F74013F5F70F8327C4FD85077D
:10169000032784FBBA979C2313072003B307F74063
:1016A00093F5F70F8327C4FD93F7F70F1307F007A0
:1016B000B307F74013F6F70F8327C4FD032784FB16
:1016C000BA979C2313072003B307F74093F7F70F4C
:1016D0000547BE865D208327C4FD8507232EF4FCC5
:1016E000834774FBFD170327C4FDE346F7F849A0C1
:1016F000232C04FCB5A0832784FD93F7F70F130771
:10170000E007B307F74013F5F70F832784FD85073C
:10171000032784FBBA979C2313072003B307F740E2
:1017200093F5F70F832784FD93F7F70F1307F0075F
:10173000B307F74013F6F70F832784FD032784FBD5
:10174000BA979C2313072003B307F74093F7F70FCB
:101750000547BE861D20832784FD8507232CF4FCC6
:101760008327C4FB9C233E87832784FDE3C5E7F8DA
:101770000100F640664425618280397106DE22DC74
:101780008000AA87A307F4FCAE872307F4FCB28786
:10179000A306F4FCB6872306F4FCBA87A305F4FC81
:1017A0000347D4FC8347F4FC6369F7000347D4FC88
:1017B0008347F4FCB307F74039A00347F4FC8347A1
:1017C000D4FCB307F7402324F4FE0347C4FC83474B
:1017D000E4FC6369F7000347C4FC8347E4FCB307F8
:1017E000F74039A00347E4FC8347C4FCB307F74044
:1017F0002322F4FE0347F4FC8347D4FC6374F70010
:10180000854711A0FD572320F4FE0347E4FC8347DE
:10181000C4FC6374F700854711A0FD57232EF4FC28
:10182000032784FE832744FEB307F7402326F4FEF4
:101830008347F4FCC207C1870347E4FC42074187A2
:101840008346B4FC3686BA853E85EFE05FC4034725
:10185000F4FC8347D4FC6318F7000347E4FC834798
:10186000C4FC6307F7068327C4FE8607232CF4FC19
:10187000832744FEB307F040032784FD63D3E702C8
:101880000327C4FE832744FEB307F7402326F4FE54
:10189000832704FE13F7F70F8347F4FCBA97A307D7
:1018A000F4FC032784FD832784FEE353F7F8032722
:1018B000C4FE832784FEBA972326F4FE8327C4FD43
:1018C00013F7F70F8347E4FCBA972307F4FC8DB7AF
:1018D00001000100F250625421618280397106DEFC
:1018E00022DC26DA8000232EA4FCAE87232AC4FC47
:1018F0002328D4FC2326E4FCA30DF4FC832744FD19
:1019000023800700996783A7C7492322F4FE8547F0
:101910002326F4FE9307C4FD9C4363D1070293077B
:10192000C4FD94439307C4FD370700801347F7FFB6
:10193000758F98C3832744FD054798A3A30504FE2C
:1019400031A80327C4FEBA878A07BA9786072326D9
:10195000F4FE8347B4FE8507A305F4FE0347B4FEF7
:101960008347B4FDE36FF7FC0325C4FEEF30306F0F
:10197000AA87BE85032544FEEF30C038AA872322FC
:10198000F4FE8327C4FD832544FE3E85EF30E0004E
:10199000AA873E85EF30D0542A87832704FD98C359
:1019A0008327C4FD832544FE3E85EF20107FAA8750
:1019B000BE840325C4FEEF30906AAA87BE852685C3
:1019C000EF308070AA87BE84832704FD9C433E8746
:1019D0008327C4FEB307F7023E85EF305068AA871D
:1019E000BE852685EF305017AA873E85EF307055AB
:1019F0002A878327C4FC98C30100F2506254D25452
:101A000021618280797106D622D400182326A4FE93
:101A10002324B4FE2322C4FE2320D4FE232EE4FC80
:101A2000832744FE9C2385E3832704FE9843832772
:101A3000C4FD9C43BE863A86832584FE0325C4FEEE
:101A4000EF30B0750DA0832704FE9C433307F040B0
:101A50008327C4FD9C43BE863A86832584FE0325E6
:101A6000C4FEEF3090730100B25022544561828071
:101A700001A001A001A001A001A001A001A001A05E
:101A800001A001A001A001A001A001A001A001A04E
:101A900001A001A001A001A001A001A001A001A03E
:101AA00001A001A001A001A001A001A001A001A02E
:101AB00001A001A001A001A001A001A001A001A01E
:101AC00001A001A001A001A001A001A001A001A00E
:101AD00001A001A001A001A001A001A097F1FF1F9A
:101AE000938141E5173100201301C15117550000C2
:101AF0001305C53197E5FF1F9385C55013860181F6
:101B000063FAC5008322050023A055001105910545
:101B1000E3EAC5FE138501819385C1F16377B500C2
:101B2000232005001105E36DB5FEFD42739002BC54
:101B30008D42739042809302800873A0023097E236
:101B4000FFFF9382A24F93E232007390523097329C
:101B500000009382A2CB73901234730020304111A5
:101B600006C622C400080947238EE1809387C181FD
:101B7000414798B39387C18123810700130740062B
:101B80008D461386C18193050004B7570040138525
:101B90000740EF1060785145EF00A07B1307400627
:101BA00085461386C18193050004B757004013850D
:101BB0000740EF1060765145EF00A079130740060B
:101BC0008946138601D693050004B7570040138554
:101BD0000740EF10101C0100B240224441018280F6
:101BE000011122CE00102326A4FE2324B4FE832755
:101BF000C4FE032784FE98C30100724405618280FD
:101C0000011122CE00102326A4FE8327C4FE9C438C
:101C100099CB8327C4FE9C431387F7FF8327C4FE19
:101C200098C3854711A081473E8572440561828033
:101C30005D7186C696C49AC29EC022DE2ADC2EDA68
:101C400032D836D63AD43ED242D046CE72CC76CABC
:101C50007AC87EC68008B7F700E0D843B7F700E03F
:101C6000799BD8C383A781821387170023A4E182BD
:101C700083A7C18299C783A7C1821387F7FF23A6D1
:101C8000E18283A7018399C783A701831387F7FFA5
:101C900023A8E18213858183A537AA8793C71700FC
:101CA00093F7F70F81C70547238AE1821385C18423
:101CB000813FAA8793C7170093F7F70F81C705479E
:101CC000A384E18483A7018599C783A7018513872E
:101CD000F7FF23A8E1840100B640A64216438643DD
:101CE00072546255D2554256B256225792570258F4
:101CF000F248624ED24E424FB24F616173002030C3
:101D0000411122C636C43AC23EC00008B74701405E
:101D1000938707809E23C207C18393F70702A1CB55
:101D20009387C1D6DA2BCD4763EFE702B74701406F
:101D300093870780DE231397070141839387C1D6DA
:101D4000DE2BBE861377F70F9387C1D6B69798A37D
:101D50009387C1D6DE2B85071397070141839387AD
:101D6000C1D6DAAB29A09387C1D6239A0700B7471B
:101D70000140938707809E23C207C183C18B85C31F
:101D8000B747014093870780DE239387C1D6DA2BBC
:101D90009387C1D6FAAB9387C1D6239A0700010077
:101DA0003244A2461247824741017300203041115C
:101DB00022C636C43AC23EC00008B74700409387E7
:101DC00007409E23C207C18393F70702A1CB9387E5
:101DD00041D8DA2BCD4763EFE702B747004093873E
:101DE0000740DE23139707014183938741D8DE2BF9
:101DF000BE861377F70F938741D8B69798A393873A
:101E000041D8DE2B8507139707014183938741D87B
:101E1000DAAB29A0938741D8239A0700B74700403F
:101E2000938707409E23C207C183C18B85C3B747F1
:101E3000004093870740DE23938741D8DA2B9387AE
:101E400041D8FAAB938741D8239A07000100324466
:101E5000A24612478247410173002030411122C639
:101E600036C43AC23EC00008B75700409387078087
:101E70009E23C207C18393F70702A1CB9387C1D9E1
:101E8000DA2BCD4763EFE702B7570040938707800F
:101E9000DE231397070141839387C1D9DE2BBE86CA
:101EA0001377F70F9387C1D9B69798A39387C1D9B2
:101EB000DE2B85071397070141839387C1D9DAABDE
:101EC00029A09387C1D9239A0700B7570040938769
:101ED00007809E23C207C183C18B85C3B7570040CB
:101EE00093870780DE239387C1D9DA2B9387C1D9E3
:101EF000FAAB9387C1D9239A070001003244A24666
:101F0000124782474101730020305D7186C696C436
:101F10009AC29EC022DE2ADC2EDA32D836D63AD4D5
:101F20003ED242D046CE72CC76CA7AC87EC68008EF
:101F3000B7070040938707409E2BC207C183858B5C
:101F40008DC3B7070040938707409E2B1397070167
:101F50004183B707004093870740799B420741833D
:101F60009AABB7170140938707809C47858BB3379F
:101F7000F00093F6F70FB74700001387674E1386FC
:101F800021869385118613850186EF20F017B717F8
:101F90000140938707809C47898BB337F00093F605
:101FA000F70FB74700001387A75A138661869385FA
:101FB000518613854186EF203015B717014093876E
:101FC00007C09C47858BB337F00093F6F70FB747F0
:101FD0000000138767671386A18693859186138512
:101FE0008186EF207012B7170140938707C09C4786
:101FF000898BB337F00093F6F70FB74700001387CC
:10200000E76B1386E1869385D1861385C186EF2021
:10201000B00F0100B640A642164386437254625583
:10202000D2554256B256225792570258F248624E43
:10203000D24E424FB24F616173002030011122CE67
:1020400000102326A4FE8327C4FEFD8B0547B3168C
:10205000F70037E700E08327C4FE958393870704E2
:102060008A07BA9794C30100724405618280011106
:1020700022CE00102326A4FEAE87A305F4FE03475C
:10208000B4FE9D4763F5E7009D47A305F4FEB7E660
:1020900000E08347B4FE960713F7F70F8327C4FECB
:1020A000B6972380E74001007244056182804111A8
:1020B00022C60008B7170240984FB71702401367AF
:1020C000470098CFB7170240984FB71702401367E1
:1020D000170098CFB7070140D443B707014037072F
:1020E00000F97D17758FD8C3B71701409387078014
:1020F000596798CFB717014093870780196798CF22
:10210000B717014093870780596798CFB7170140E9
:10211000938707809C4F0100324441018280411126
:1021200022C60008B71702409843B717024013674A
:10213000170098C30100B71702409C43898BE5DF65
:10214000B71702409443B71702403707FCFF7D17CB
:10215000758F98C3B71702409443B7170240416781
:10216000558F98C30100B71702409843B707020084
:10217000F98FF5DBB71702409443B71702403707D2
:102180000800558F98C3B7170240DC4313F7C7FF09
:10219000B717024013671700D8C3B717024094431C
:1021A000B7170240370700FF7D17758F98C3B71721
:1021B0000240DC4313F7F7F0B71702401367070834
:1021C000D8C3B7270240944BB7270240370700FE19
:1021D0007D17758F98CBB7170240DC4313F7F78F45
:1021E000B717024013670740D8C3B7170240D4435C
:1021F000B717024071771307F77F758FD8C3B717EA
:102200000240D843D177FD17B376F700B7170240E5
:102210002167558FD8C3B7170240D443B717024080
:1022200001777D17758FD8C3B7170240D443B7170E
:1022300002404167558FD8C3B7170240D443B71740
:10224000024037073C00558FD8C3B7170240D84328
:10225000B70740FFFD17B376F700B71702403707FF
:102260008000558FD8C3B7170240D443B717024038
:10227000370700F97D17758FD8C3B717024094430D
:10228000B717024037070001558F98C3B7170240B0
:10229000DC4313F7C7FFB717024013672700D8C303
:1022A0000100B71702409843B7070002F98FF5DB2A
:1022B0000100324441018280411106C622C4000857
:1022C000B7F700E09843B7F700E0799B98C3B7F7FA
:1022D00000E09843B7F700E01367270098C3B7F70B
:1022E00000E09843B7F700E06D9B98C3B7F700E0B4
:1022F0009843B7F700E01367870098C3B7F700E08B
:102300009843B7F700E01367070198C3B7F700E0F9
:102310009843B7F700E01367070298C337F700E068
:1023200089679387773201481CCB232A07013145FF
:1023300031339D453145253BB7F700E09843B7F76A
:1023400000E01367170098C30100B2402244410126
:102350008280011122CE00102326A4FE0327C4FE92
:1023600023A6E182010083A7C182F5FF0100724428
:1023700005618280797122D60018232EA4FCAE87D5
:102380003687A30DF4FCB287230DF4FCBA87A30CA7
:10239000F4FCA30704FE8347A4FD89C70547638EA9
:1023A000E702A5A88347B4FD8A07A307F4FE8327A5
:1023B000C4FD98438347F4FE8D46B397F60093C758
:1023C000F7FFF98F834694FD0347F4FE3397E60049
:1023D0005D8F8327C4FD98C389A08347B4FDE117AF
:1023E000A30DF4FC8347B4FD8A07A307F4FE8327FB
:1023F000C4FDD8438347F4FE8D46B397F60093C7D8
:10240000F7FFF98F834694FD0347F4FE3397E60008
:102410005D8F8327C4FDD8C301000100325445619C
:102420008280797106D622D40018232EA4FCAE87B0
:102430003287A30DF4FCBA87230DF4FCA30704FE36
:102440000347B4FD9D4763E5E700A30704FE21A011
:102450008547A307F4FE8347A4FD81EF0347F4FEFD
:102460008347B4FD81463A86BE850325C4FD1937EE
:1024700085A00347A4FD8547631DF7000347F4FECD
:102480008347B4FD85463A86BE850325C4FDDD3508
:1024900081A00347A4FD8947631DF7000347F4FEAD
:1024A0008347B4FD89463A86BE850325C4FDD935E8
:1024B00005A00347A4FD8D47631CF7000347F4FE06
:1024C0008347B4FD8D463A86BE850325C4FD5D3540
:1024D0000100B250225445618280011122CE0010C9
:1024E0002326A4FEAE8732872322D4FEA305F4FE62
:1024F000BA872305F4FE8347B4FE89C70547638D79
:10250000E7029DA08327C4FE9843832744FE9C23B3
:10251000BE868D47B397D70093C7F7FFF98F034760
:10252000A4FE832644FE94223317D7005D8F8327B1
:10253000C4FE98C301000DA88327C4FED843832797
:1025400044FE9C23BE868D47B397D70093C7F7FF01
:10255000F98F0347A4FE832644FE94223317D70045
:102560005D8F8327C4FED8C3010072440561828059
:10257000011106CE22CC00102326A4FE2324B4FE93
:102580002320F4FEB287A303F4FEB6872303F4FEF0
:10259000BA87A302F4FE834774FE05476385E70408
:1025A00009476380E708639C0712834764FE89C775
:1025B0000547638EE70025A2032704FE834754FEE8
:1025C000BA860146BE850325C4FE013F21A8032724
:1025D00004FE834754FEBA860546BE850325C4FE25
:1025E000ED3D0100EDA8834764FE89C70547638E72
:1025F000E700F5A0032704FE834754FEBA86094688
:10260000BE850325C4FED13D21A8032704FE8347D0
:1026100054FEBA860D46BE850325C4FE7D3D0100ED
:102620007DA8834764FE0D47638BE7020D47634631
:10263000F7000947638AE70055A01147638CE7025A
:1026400015476384E70659A8032704FE834754FE11
:10265000BA860146BE850325C4FE413541A0032745
:1026600004FE834754FEBA860546BE850325C4FE94
:10267000AD35ADA0032704FE834754FEBA86094654
:10268000BE850325C4FE913D8327C4FED84783271A
:1026900084FE9C23BE868547B397D70093C7F7FF78
:1026A0007D8F8327C4FED8C715A8032704FE834760
:1026B00054FEBA860946BE850325C4FE393D8327EC
:1026C000C4FED847832784FE9C23BE868547B397E4
:1026D000D7005D8F8327C4FED8C701000100010029
:1026E000F240624405618280797106D622D40018D6
:1026F000232EA4FCAE87A30DF4FCB287230DF4FCBB
:10270000B687A30CF4FCBA87230CF4FCA30704FEE1
:102710000327C4FDB717014093870780631BF700A9
:10272000B7170240984FB71702401367470098CF7A
:1027300051A00327C4FDB7170140938707C0631B4F
:10274000F700B7170240984FB7170240136787008A
:1027500098CF8DA00327C4FDB7170140631BF70076
:10276000B7170240984FB71702401367070198CF79
:1027700091A00327C4FDB717014093870740631B4F
:10278000F700B7170240984FB717024013670702C8
:1027900098CF0DA00327C4FDB7270140938707807A
:1027A000631AF700B7170240984FB7170240136734
:1027B000070498CF8347B4FD034784FD3A86BE855E
:1027C0000325C4FDEFF0FFC50347B4FD9D4763E952
:1027D000E7028347B4FD8A0793F7F70F890793F75A
:1027E000F70FA307F4FE9307F4FE834694FD034618
:1027F000A4FD9305B4FD01470325C4FD953B35A811
:102800008347B4FDE11793F7F70FA30DF4FC83475B
:10281000B4FD8A0793F7F70F890793F7F70FA3071C
:10282000F4FE9307F4FE834694FD0346A4FD93054E
:10283000B4FD05470325C4FD253B0100B2502254D9
:1028400045618280411122C60008B7170240944FAB
:10285000B7170240056713070780558F98CFB71742
:102860000240984FB71702401367170098CFB73749
:102870000140938707C09E23139707014183B73711
:102880000140938707C0759B420741839AA3B737DE
:102890000140938707C09E23139707014183B737F1
:1028A0000140938707C06D9B420741839AA3B737C6
:1028B0000140938707C09E23139707014183B737D1
:1028C0000140938707C05D9B420741839AA3B737B6
:1028D0000140938707C09E23139707014183B737B1
:1028E0000140938707C03D9B420741839AA3B737B6
:1028F0000140938707C09E23139707014183B73791
:102900000140938707C01377F7F9420741839AA3E1
:10291000B7370140938707C09E2313970701418370
:10292000B7370140938707C0136707084207418301
:102930009AA3B7370140938707C09E2313970701D7
:102940004183B7370140938707C01377F7CF42071A
:1029500041839AA3B7370140938707C0DE271397B7
:1029600007014183B7370140938707C013671700FA
:1029700042074183DAA7B7370140938707C0239402
:102980000702B7370140938707C00567130777BB76
:10299000DAB7B7370140938707C083D74704139747
:1029A00007014183B7370140938707C01377F7CFFB
:1029B000420741832392E704B7370140938707C05A
:1029C00083D7470493960701C182B73701409387A5
:1029D00007C01167558F420741832392E704B73739
:1029E0000140938707C09E23139707014183B737A0
:1029F0000140938707C013671700420741839AA3DA
:102A00000100324441018280411122C60008B717FB
:102A10000240984FB71702401367470098CFB71787
:102A2000014093870780DC4313F737FFB717014056
:102A30009387078013678700D8C3B7170140938730
:102A40000780D843B7170140938707801367370083
:102A5000D8C3B7370140938707C0239C0700B73717
:102A60000140938707C09E2F139707014183B73713
:102A70000140938707C0719B420741839AAFB737E4
:102A80000140938707C09E2F139707014183B737F3
:102A90000140938707C06D9B420741839AAFB737C8
:102AA0000140938707C09E2F139707014183B737D3
:102AB0000140938707C013678700420741839AAF9D
:102AC000B7370140938707C09E2FC207C183C20753
:102AD000C18793F7F7F8C207C18793E707061397F3
:102AE00007014187B7370140938707C042074183F9
:102AF0009AAFB7370140938707C09E2F13970701FE
:102B00004183B7370140938707C01377F7F7420730
:102B100041839AAFB7370140938707C09E3313971D
:102B200007014183B7370140938707C01367170038
:102B3000420741839AB3B7370140938707C09E335A
:102B4000139707014183B7370140938707C0759BEF
:102B5000420741839AB3B7370140938707C0239A4E
:102B600007020100324441018280411106C622C49D
:102B70000008B7170240D84FB71702401367270065
:102B8000D8CFB7170240984FB71702401367170006
:102B900098CFB7070040938707409E2313970701FC
:102BA0004183B707004093870740759B42074183E5
:102BB0009AA3B7070040938707409E231397070106
:102BC0004183B7070040938707406D9B42074183CD
:102BD0009AA3B7070040938707409E2313970701E6
:102BE0004183B7070040938707405D9B42074183BD
:102BF0009AA3B7070040938707409E2313970701C6
:102C00004183B7070040938707403D9B42074183BC
:102C10009AA3B7070040938707409E2313970701A5
:102C20004183B7070040938707401377F7F94207BE
:102C300041839AA3B7070040938707409E231397C9
:102C400007014183B70700409387074013670708D0
:102C5000420741839AA3B7070040938707409E230A
:102C6000139707014183B707004093870740137705
:102C7000F7CF420741839AA3B707004093870740E5
:102C8000DE27139707014183B7070040938707406A
:102C90001367170042074183DAA7B70700409387FD
:102CA000074009671307F7C19AB7B7070040938732
:102CB00007401307301FDAB71305D002EFF00FB843
:102CC000B7070040938707409E231397070141836E
:102CD000B7070040938707401367170042074183F7
:102CE0009AA30100B240224441018280411106C6EC
:102CF00022C40008B7170240D84FB7170240136725
:102D00004700D8CFB7170240984FB7170240136754
:102D1000170098CFB7170040938707809E2313971B
:102D200007014183B717004093870780759B4207CF
:102D300041839AA3B7170040938707809E23139778
:102D400007014183B7170040938707806D9B4207B7
:102D500041839AA3B7170040938707809E23139758
:102D600007014183B7170040938707805D9B4207A7
:102D700041839AA3B7170040938707809E23139738
:102D800007014183B7170040938707803D9B4207A7
:102D900041839AA3B7170040938707809E23139718
:102DA00007014183B7170040938707801377F7F92E
:102DB000420741839AA3B7170040938707809E2359
:102DC000139707014183B717004093870780136764
:102DD0000708420741839AA3B717004093870780EB
:102DE0009E23139707014183B717004093870780FD
:102DF0001377F7CF420741839AA3B7170040938711
:102E00000780DE27139707014183B7170040938798
:102E100007801367170042074183DAA7B7170040FE
:102E20009387078011671307F7839AB7B717004096
:102E3000938707801D671307F752DAB71305E0027F
:102E4000EFF0CF9F95451305E002EFF04FA2B717C3
:102E50000040938707809E23139707014183B7178C
:102E600000409387078013671700420741839AA3A6
:102E70000100B240224441018280411122C6000873
:102E8000B7570040938707409E2393960701C1825E
:102E9000B7570040938707406177558F42074183BA
:102EA0009AA30100B7570040938707409E23C207AB
:102EB000C183C207C187E3D707FEB7570040938796
:102EC00007409E2393960701C182B757004093871E
:102ED000074021677D17758F420741839AA3010040
:102EE000B7570040938707409E23C207C183C2079C
:102EF000C187E3C707FE01003244410182804111CE
:102F000006C622C40008B7170240984FB717024000
:102F10001367870098CFB7170240984FB717024042
:102F20001367170098CFB7170240D44FB717024066
:102F300037072000558FD8CFB7070140D843B707D0
:102F4000014013672700D8C3B7170140938707C014
:102F5000D843B7170140938707C01367070CD8C33E
:102F6000B7170140938707C0D843B717014093872D
:102F700007C013670703D8C3B7170140938707C07B
:102F8000D843B7170140938707C01367C700D8C35A
:102F9000B7170140938707C0D843B71701409387FD
:102FA00007C013673700D8C3C93DB75700409387A0
:102FB00007409E2393960701C182B757004093872D
:102FC000074079777D17758F420741839AA3B757DA
:102FD0000040938707409E2393960701C182B7570D
:102FE0000040938707407D777D17758F42074183A7
:102FF0009AA3B7570040938707409E2393960701F3
:10300000C182B7570040938707407D771307F77F4A
:10301000758F420741839AA3B757004093870740B3
:103020009E23139707014183B757004093870740BA
:103030001377F7BF420741839AA3B757004093879E
:1030400007409E23139707014183B757004093879A
:1030500007401377F7DF420741839AA3B757004031
:10306000938707409E23139707014183B75700407A
:10307000938707401377F7EF420741839AA3B75727
:103080000040938707409E23139707014183B7575A
:103090000040938707401377F7F7420741839AA3CD
:1030A000B7570040938707409E231397070141833A
:1030B000B7570040938707401377F7FB42074183D8
:1030C0009AA3B7570040938707409E2313970701A1
:1030D0004183B7570040938707401377F7FD4207B6
:1030E00041839AA3B7570040938707409E231397C5
:1030F00007014183B7570040938707403D9B420734
:1031000041839AA3B7570040938707409E231397A4
:1031100007014183B7570040938707405D9B4207F3
:1031200041839AA3B7570040938707409E23139784
:1031300007014183B757004093870740759B4207BB
:1031400041839AA3B757004093870740DE239396A5
:103150000701C182B7570040938707407D777D17ED
:10316000758F42074183DAA3B75700409387074022
:10317000DE2393960701C182B7570040938707402B
:103180007D771307F77F758F42074183DAA3B7571F
:10319000004093870740DE23139707014183B75709
:1031A0000040938707401377F7BF42074183DAA3B4
:1031B000B757004093870740DE23139707014183E9
:1031C000B7570040938707401377F7DF42074183E3
:1031D000DAA3B757004093870740DE231397070110
:1031E0004183B7570040938707401377F7EF4207B3
:1031F0004183DAA3B757004093870740DE23C20715
:10320000C183C207C18793F707FCC207C18793E751
:103210004702139707014187B7570040938707403C
:1032200042074183DAA3B7570040938707402394AE
:103230000700B75700409387074023960700B7570A
:10324000004093870740DE2F93960701C182B7574E
:1032500000409387074021677D17758F42074183A0
:10326000DAAFB757004093870740DE2F93960701E8
:10327000C182B75700409387074071777D17758FDC
:1032800042074183DAAFB757004093870740DE2FEC
:10329000C207C183139707014187FD77F98FC207E2
:1032A000C18793E7470B139707014187B757004042
:1032B0009387074042074183DAAFB75700409387AF
:1032C00007409E33C207C183C207C18793F707FC3B
:1032D000C207C18793E75702139707014187B75782
:1032E000004093870740420741839AB3B757004095
:1032F000938707409E23139707014183B7570040E8
:103300009387074013671700420741839AA3010080
:10331000B240224441018280797106D622D400183D
:10332000232EA4FCAE87232AC4FC2328E4FCA30D8F
:10333000F4FCB687231CF4FC8327C4FD9E2FC20730
:10334000C183898BC9CFB7170140938707C09C47BA
:1033500093F7070489CFB7170140938707C09C47AD
:1033600093F7070889C7EFF05FB1EFF05FB98327E4
:10337000C4FD9E2FC207C183858B91CF8327C4FDD7
:103380009E23C207C18393E7072013970701418358
:103390008327C4FD9AA38327C4FD9E2313970701A7
:1033A00041838547630BF7028327C4FD9E23C20731
:1033B000C183F99B1397070141838327C4FD9AA317
:1033C0008327C4FD9E23C207C18393E71700139789
:1033D000070141838327C4FD9AA3814775A28327F0
:1033E000C4FD9E23139707014183FD779387F77FE1
:1033F000F98F1397070141838327C4FD9AA383277D
:10340000C4FD9E23C207C18393E7071013970701EA
:1034100041838327C4FD9AA3032704FD23A8E182E7
:1034200031A083A7018399E38147B9AA8327C4FD0B
:10343000DE2BC207C183858BEDD78327C4FDDE2B2E
:103440008347B4FDC207C1838607139707014183F1
:103450008327C4FD9AAB032704FD23A8E18231A092
:1034600083A7018399E3814705A28327C4FDDE2B4F
:10347000C207C18393F7074081EB8327C4FDDE2B8E
:10348000C207C183898BE9DF8327C4FDDE2BC20716
:10349000C183898BDDCF8327C4FDDE2B8327C4FD49
:1034A0009E2F231704FE49A08357E4FE032744FD03
:1034B000BA979C231397070141838327C4FD9AABD6
:1034C000B9A08327C4FDDE2BC207C18313F70740D1
:1034D0008547631EF7028327C4FD9E23C207C1836D
:1034E00093E707201397070141838327C4FD9AA31D
:1034F0008327C4FDDE2BC207C18393F7F7BF139761
:10350000070141838327C4FDDAAB8147B5A8832730
:10351000C4FDDE2BC207C18393F70708DDD38357B1
:10352000E4FE85072317F4FE0357E4FE835784FD6A
:10353000E36CF7F68327C4FD9E23C207C18393E79C
:1035400007201397070141838327C4FD9AA385476A
:1035500025A88327C4FD9E23C207C18393E70720C4
:103560001397070141838327C4FD9AA38327C4FDD2
:10357000DE2BC207C18393F7F7BF1397070141837F
:103580008327C4FDDAAB81473E85B25022544561A2
:103590008280797106D622D40018232EA4FCAE872F
:1035A000232AC4FC2328E4FCA30DF4FCB687231CC7
:1035B000F4FC8327C4FD9E2FC207C183898BC9CF2A
:1035C000B7170140938707C09C4793F7070489CF3B
:1035D000B7170140938707C09C4793F7070889C72F
:1035E000EFF0BF89EFF0BF918327C4FD9E2FC20784
:1035F000C183858B91CF8327C4FD9E23C207C183DE
:1036000093E707201397070141838327C4FD9AA3FB
:103610008327C4FD9E231397070141838547630BCE
:10362000F7028327C4FD9E23C207C183F99B13972A
:10363000070141838327C4FD9AA38327C4FD9E23EA
:10364000C207C18393E717001397070141838327BC
:10365000C4FD9AA3814711A48327C4FD9E23139719
:1036600007014183FD779387F77FF98F1397070150
:1036700041838327C4FD9AA38327C4FD9E23C207E9
:10368000C18393E707101397070141838327C4FD84
:103690009AA3032704FD23A8E18231A083A7018315
:1036A00099E381475DAA8327C4FDDE2BC207C1834E
:1036B000858BEDD78327C4FDDE2B8347B4FD8607BA
:1036C000C207C18793E71700C207C1871397070195
:1036D00041838327C4FD9AAB032704FD23A8E1821D
:1036E00031A083A7018399E3814785AA8327C4FD7D
:1036F000DE2BC207C18393F7074081EB8327C4FD0C
:10370000DE2BC207C183898BE9DF8327C4FDDE2B53
:10371000C207C183898B638707108327C4FDDE2B13
:103720008327C4FD9E2F231704FEEDA00357E4FE5C
:10373000835784FDFD176350F7068327C4FD9E233E
:10374000C207C18393E7074013970701418383278B
:10375000C4FD9AA3032704FD23A8E18231A083A717
:10376000018399E38147D5A88327C4FDDE2BC207D7
:10377000C18393F70704E5D78327C4FD9E2B939657
:103780000701C1828357E4FE032744FDBA9713F76C
:10379000F60F98A39DA88327C4FD9E23C207C1836B
:1037A00093F7F7BF1397070141838327C4FD9AA3BB
:1037B0008327C4FD9E23C207C18393E70720139785
:1037C000070141838327C4FD9AA3032704FD23A88F
:1037D000E18231A083A7018399E38147BDA88327B4
:1037E000C4FDDE2BC207C18393F70704E5D7832707
:1037F000C4FD9E2B93960701C1828357E4FE0327E5
:1038000044FDBA9713F7F60F98A38357E4FE850794
:103810002317F4FE0357E4FE835784FDE368F7F0B3
:10382000854725A88327C4FD9E23C207C18393E74C
:1038300007201397070141838327C4FD9AA3832799
:10384000C4FDDE2BC207C18393F7F7BF13970701AF
:1038500041838327C4FDDAAB81473E85B2502254B1
:1038600045618280411122C60008B7170240984F77
:10387000B71702401367170098CFB7170240944F4D
:10388000B71702400567558F98CFB7170240984F7A
:10389000B71702401367470098CFB73701409E2300
:1038A000C207C183C207C18793F777FCC207C187EC
:1038B00093E70701139707014187B7370140420794
:1038C00041839AA3B73701409E2313970701418391
:1038D000B737014013672700420741839AA3B737E0
:1038E00001409E23139707014183B73701401367B7
:1038F0001700420741839AA3B73701409E2393964E
:103900000701C182B73701407D771307F77F758FB5
:10391000420741839AA3B73701409E2313970701BB
:103920004183B73701401377F7F7420741839AA3E2
:10393000B73701409E23139707014183B7370140F2
:1039400013670720420741839AA3B73701409E239C
:10395000139707014183B7370140136707104207E8
:1039600041839AA3B73701409E23139707014183F0
:10397000B737014013674700420741839AA3B7371F
:1039800001409E2393960701C182B737014021670A
:103990007D17758F420741839AA3B73701409E2355
:1039A000139707014183B73701401377F7BF4207E9
:1039B00041839AA3B73701409E23139707014183A0
:1039C000B737014013670704420741839AA3B7370B
:1039D00001409E2393960701C182B7370140797752
:1039E0007D17758F420741839AA3B73701409E2305
:1039F00093960701C182B73701407D777D17758F98
:103A0000420741839AA3B7370140DE23139707018A
:103A10004183B7370140799B42074183DAA3B73727
:103A20000140DE23139707014183B7370140759B9F
:103A300042074183DAA3B7370140DE23139707011A
:103A40004183B73701406D9B42074183DAA3B73703
:103A50000140DE23139707014183B73701401377F5
:103A6000F7FD42074183DAA3B7370140DE231397FE
:103A700007014183B73701401377F7FB42074183C2
:103A8000DAA3B7370140DE23139707014183B73725
:103A900001401377F7F742074183DAA3B7370140B4
:103AA000DE2F93960701C182B73701407D77130758
:103AB000F77F758F42074183DAAFB71701409387CD
:103AC00007809443B717014093870780370730007A
:103AD000558F98C3B7170140938707809843B7075E
:103AE00040FFFD17B376F700B717014093870780B3
:103AF00037078000558F98C3B71701409387078019
:103B00009443B717014093870780370700FD7D175F
:103B1000758F98C3B7170140938707809843B707FD
:103B200000F4FD17B376F700B717014093870780BD
:103B300037070004558F98C3B71701409387078054
:103B4000D847B71701409387078013670704D8C782
:103B5000B7170140938707809443B71701409387B5
:103B6000078037070030558F98C3B71701409387F8
:103B700007809843B7070040FD17B376F700B717E3
:103B800001409387078037070080558F98C3010055
:103B9000324441018280797122D60018232EA4FC80
:103BA000232CB4FCB2872328D4FC231BF4FC8327EA
:103BB000C4FD9E27C207C18393F70708DDEB832767
:103BC00084FD9C231397070141838327C4FDDAA753
:103BD00085472317F4FE99A0032704FD23A8E1825B
:103BE00031A083A7018399E3814769A08327C4FD9E
:103BF0009E27C207C183898BEDD78357E4FE032735
:103C000084FDBA979C231397070141838327C4FD42
:103C1000DAA78357E4FE85072317F4FE0357E4FE73
:103C2000835764FDE36AF7FA032704FD23A8E182C2
:103C300031A083A7018399E381472DA88327C4FD81
:103C40009E27C207C183898BEDD7032704FD23A8D4
:103C5000E18231A083A7018399E3814721A88327CB
:103C6000C4FD9E27C207C18393F70708E5F7854780
:103C700011A081473E85325445618280411122C6A0
:103C80000008B72702403707674513073712D8C324
:103C9000B72702403797EFCD1307B79AD8C3010073
:103CA000324441018280411122C60008B7270240F8
:103CB000984BB72702401367070898CB010032449E
:103CC00041018280011106CE22CC0010AA87231761
:103CD000F4FEB72702409C4B93F7070891C3793F46
:103CE000B7270240984BB72702401367270098CBAD
:103CF000B72702400357E4FED8CBB7270240984BC2
:103D0000B72702401367070498CB0100B72702408A
:103D1000DC47858BE5FFB7270240984BB727024069
:103D2000759B98CB49370100F2406244056182805F
:103D3000797106D622D40018232EA4FC232CB4FCBF
:103D4000B287231BF4FC835764FD858BC207C183B4
:103D5000DDC3835764FD8583231BF4FC8327C4FDE7
:103D6000C207C1833E85B93FB72702409C4B93F7FA
:103D7000070891C32137B7270240984BB727024065
:103D80001367170098CB232604FE1DA88327C4FEC3
:103D90008607032784FDBA970327C4FE0607BA8661
:103DA0000327C4FD36979E231EA30100B7270240B8
:103DB000DC47858BE5FF8327C4FE85072326F4FEB9
:103DC000835764FD0327C4FEE342F7FC835764FD79
:103DD00086073E87832784FDBA979423835764FD23
:103DE00086073E878327C4FDBA973E8793970601CF
:103DF000C1831EA3B5A8835764FD8583231BF4FCF0
:103E00008327C4FDC207C1833E856D3DB7270240AD
:103E10009C4B93F7070891C39535B7270240984B01
:103E2000B72702401367170098CB232404FE1DA870
:103E3000832784FE8607032784FDBA97032784FE21
:103E40000607BA860327C4FD36979E231EA30100EA
:103E5000B7270240DC47858BE5FF832784FE850773
:103E60002324F4FE835764FD032784FEE342F7FC1A
:103E70000100B7270240DC47858BE5FFB7270240EA
:103E8000984BB7270240799B98CB313D0100B25047
:103E9000225445618280797122D60018232EA4FC19
:103EA000232CB4FCB287231BF4FC835764FD858B61
:103EB000C207C183BDC7835764FD8583231BF4FC00
:103EC000231704FE35A08357E4FE86073E87832729
:103ED000C4FDBA97BE868357E4FE8607032784FD98
:103EE000BA979A229AA38357E4FE85072317F4FE14
:103EF0000357E4FE835764FDE367F7FC835764FDD3
:103F000086073E878327C4FDBA979A23835764FDAB
:103F10008607BE86832784FDB6971377F70F98A38D
:103F2000A1A0835764FD8583231BF4FC231604FEA4
:103F300035A08357C4FE86073E878327C4FDBA9702
:103F4000BE868357C4FE8607032784FDBA979A224C
:103F50009AA38357C4FE85072316F4FE0357C4FEB5
:103F6000835764FDE367F7FC0100325445618280AA
:103F7000411106C622C400080D4781460146894505
:103F8000B717014013850780EFE00FF60D47814614
:103F900001468D45B717014013850780EFE0CFF448
:103FA0000D47814601469145B717014013850780AB
:103FB000EFE08FF301478D4609468145B717014071
:103FC00013850780EFE04FF201478D46094685458E
:103FD000B717014013850780EFE00FF101478D46C9
:103FE00009468145B7170140138507C0EFE0CFEFC1
:103FF00001478D4609468545B7170140138507C01F
:10400000EFE08FEE0100B240224441018280411175
:1040100006C622C4000815469385818537F5000839
:104020009D3D03878185894763C6E7008387818536
:1040300063D507002384018429A003878185238415
:10404000E18403A78185218393878185DC4393F7EE
:10405000F70FE207D98F3E879307400663CEE7004C
:1040600003A78185218393878185DC4393F7F70F2D
:10407000E207D98F63D90702B7070020130720038F
:1040800023AAE712B707002083A64713B7370140DA
:10409000938707C037070020860613070700369767
:1040A0001A23DABB81A003A78185218393878185A9
:1040B000DC4393F7F70FE207D98F3E87B70700205D
:1040C00023AAE712B707002083A64713B73701409A
:1040D000938707C037070020860613070700369727
:1040E0001A23DABB0100B24022444101828041110F
:1040F00006C622C40008238E01809387C181A38055
:1041000007001307400685461386C1819305000406
:10411000B757004013850740EFF00FA05145EFE07F
:104120004FA3130740069146138601D6930500045A
:10413000B757004013850740EFF0AFC583C701D6DE
:10414000A207138701D61833D98F3E85EF10C064BC
:104150002A87996783A587563A85EF00F076AA8764
:104160003E87996783A5C7563A85EF00B039AA877D
:104170003E87996783A507573A85EF10E01DAA8708
:104180003E8723A0E18203A70182996783A5475751
:104190003A85EF10601CAA873E8723A0E1829387AF
:1041A00001D6BC23A207138701D63833D98F3E85A9
:1041B000EF10805E2A87996783A587573A85EF00BD
:1041C000B070AA873E87996783A5C7563A85EF00E6
:1041D0007033AA873E8723A2E18203A741829967B1
:1041E00083A5C7573A85EF00407BAA873E8723A265
:1041F000E18293850182138541DB152C2A8723AE4A
:10420000E18293854182138541E315242A8723A007
:10421000E1840100B240224441018280011106CEB6
:1042200022CC0010EFC02F99838781840547638FCC
:10423000E70E09476389E7166394071EEFC0AF973F
:1042400099679385074AB70700201385C71AEF10AF
:10425000C074B70700201387C71A814605468145F9
:1042600013058002EFC01F8003A5C18313878181DE
:1042700093864181138621818545EFD02FE61387F0
:104280008181938641811386218199679385C74AED
:10429000B70700201385C71AEFD0CFF6B707002065
:1042A0001387C71A81460546D1450145EFC08FFBEC
:1042B00003A501841387818193864181138621811F
:1042C0008545EFD0AFE113878181938641811386C5
:1042D000218199679385474DB70700201385C71A39
:1042E000EFD04FF2B70700201387C71A8146054663
:1042F000F9450145EFC00FF7B707002083A7471323
:104300003E8699679385874FB70700201385C71AA4
:10431000EF10A068B70700201387C71A814605462B
:10432000930520030145EFC0EFF3DDA803C6C1806C
:1043300083C741843E87B707002083C72713BE8603
:1043400085473EC085480548B68793861181938589
:10435000C1CF13850181EFC0FFEB03A5C183138794
:10436000818193864181138621818545EFD00FD7C6
:104370001387818193864181138621819967938573
:104380000752B70700201385C71AEFD0AFE7B7076A
:1043900000201387C71A814601469305A0030145F3
:1043A000EFC04FECB5A803C6C18083C771843E87B8
:1043B000B707002083C73713BE8685473EC08548B0
:1043C0000548B68793866184938541EB13855184B4
:1043D000EFC05FE403A50184138781819386418147
:1043E000138621818545EFD06FCF13878181938616
:1043F000418113862181996793858754B7070020EF
:104400001385C71AEFD00FE0B70700201387C71A2C
:10441000814601469305A0030145EFC0AFE40100CA
:10442000EFC00F9B0100F240624405618280797108
:1044300006D622D40018232EA4FC232CB4FC930708
:1044400000002326F4FE8327C4FD9387C7070327B4
:1044500084FD184398C3A30504FE25A08347B4FE3A
:104460008A070327C4FDBA979C43BE850325C4FE73
:104470002D23AA872326F4FE8347B4FE8507A305D0
:10448000F4FE0347B4FEFD47E3FAE7FC996783A512
:1044900007580325C4FEEF00F006AA872326F4FE82
:1044A000230504FE2DA08347A4FE85078A07032762
:1044B000C4FD3E978347A4FE8A078326C4FDB697B2
:1044C000184398C38347A4FE85072305F4FE0347DA
:1044D000A4FEFD47E3F9E7FC8327C4FE3E85B25006
:1044E000225445618280411122C60008B70700208E
:1044F00083A747131387F7FFB707002023AAE71204
:10450000B707002083A747136346F000B7070020D2
:1045100023AA0712B707002003A747139375F70FC5
:1045200083C69185818A3686AE86D18EA38CD1844E
:104530009356870093F5F60F83C6A185818A368648
:10454000AE86D18E238DD1849356070193F5F60F55
:1045500083C6B185818A3686AE86D18EA38DD184FD
:104560001356870103C7C185018BBA863287558FE1
:10457000238EE184B707002083A64713B737014095
:10458000938707C037070020860613070700369772
:104590001A23DABB0547238AE1841307803E23A848
:1045A000E1840100324441018280411122C60008A9
:1045B000B707002083A7471313871700B70700200A
:1045C00023AAE712B707002003A747139307300673
:1045D00063D8E700B70700201307400623AAE712B5
:1045E000B707002003A747139375F70F83C691857C
:1045F000818A3686AE86D18EA38CD184935687006D
:1046000093F5F60F83C6A185818A3686AE86D18E54
:10461000238DD1849356070193F5F60F83C6B18598
:10462000818A3686AE86D18EA38DD18413568701BA
:1046300003C7C185018BBA863287558F238EE184EB
:10464000B707002083A64713B7370140938707C0F9
:104650003707002086061307070036971A23DABBB0
:104660000547238AE1841307803E23A8E1840100E3
:10467000324441018280411122C60008838781842F
:1046800093F7F70FFD1793F7F70F139787016187DC
:104690002384E184838781846344F000238401843C
:1046A00003878184238CE1840547238AE1841307EF
:1046B000803E23A8E18401003244410182804111FF
:1046C00022C600088387818493F7F70F850793F745
:1046D000F70F1397870161872384E184038781841F
:1046E000854763D5E70009472384E18403878184F4
:1046F000238CE1840547238AE1841307803E23A8A5
:10470000E18401003244410182801D7186CE96CC45
:104710009ACA9EC8A2C6AAC4AEC2B2C036DE3ADCED
:104720003EDA42D846D672D476D27AD07ECE801087
:10473000B7170040938707809E2BC207C183858BE4
:104740008DC3B7170040938707809E2B13970701EF
:104750004183B717004093870780799B42074183C5
:104760009AAB83C741843E87B707002083C72713CE
:10477000BE8683A7C1833E86B6853A85EFC0AFFB70
:10478000AA87A307F4FA03C6C1808347F4FA3E87D9
:10479000938611819385C1CF13850181EFC0FF906E
:1047A00083C771843E87B707002083C73713BE864F
:1047B00083A701843E86B6853A85EFC0CFF7AA87E6
:1047C0002307F4FA03C6C1808347E4FA3E87938641
:1047D0006184938541EB13855184EFC01F8D0100E7
:1047E000F640E6425643C6433644264596450646BD
:1047F000F2566257D2574258B258225E925E025F1A
:10480000F24F256173002030411106C622C4000812
:10481000EFD0FF89EFD0BF90EFD01FAAEFE02FEECF
:10482000EFD0EFB3EFF0CFF44920EFE00FB4EFE0BB
:104830006F81EFE06F9DEFF0EF82EFF04FFDEFB093
:10484000BFB9EFE0AFCAEFB03F9A83C7418391CFC2
:1048500083A7818399EBEFF09F899305200313854C
:104860008183EFD0EFB7238A018283C7918491CFF0
:1048700083A7C18499EBEFF07F9A930540061385D7
:10488000C184EFD0EFB5A384018483A70185D5FF50
:1048900083C74185DDDB238A0184154693858185A5
:1048A00037F50008EFF0CFC84DB7411122C6000818
:1048B0002380018693870186A38007009387018662
:1048C000238107002382018693874186A380070006
:1048D00093874186238107002384018693878186FD
:1048E000A3800700938781862381070023860186A2
:1048F0009387C186A38007009387C1862381070021
:104900000100324441018280797106D622D4001818
:104910002326A4FE2324B4FE2322C4FEB687232E1E
:10492000E4FCA301F4FE034734FE832784FE98A32E
:10493000832784FE9C2389EF8327C4FE9C2389CB95
:104940008327C4FD8297832744FE238007001DA888
:10495000832784FE9C239DE7832744FE9C238507B1
:1049600013F7F70F832744FE98A3832744FE982369
:10497000A54763F9E700832744FE294798A38327C7
:10498000C4FD8297832784FE98238327C4FE98A3BF
:104990000100B250225445618280411137078000E6
:1049A0007D1713D8750126C2935475013373A70080
:1049B00093F4F40FB376B7004AC01378F80F135985
:1049C000F50106C622C4FD819A8726854A86131EF4
:1049D0003300939E3600B3880441630AB90E6350D6
:1049E000100D630408149307F00F638BF414B707DA
:1049F0000004B3EEFE00ED4763C1172993070002E0
:104A0000B3871741B397FE00B3D81E01B337F00048
:104A1000B3E7F800B307FE4013975700635E07182B
:104A2000370400047D147D8C2285EF0030706D15F5
:104A3000B317A4006348951A058D130415001307D6
:104A40000002018F3397E7003337E000B3D78700C8
:104A5000D98F814413F7770019C713F7F7009146F0
:104A60006303D700910713975700635B071485040E
:104A70001307F00F4A866383E4169A07A58313F59C
:104A8000F40FB2402244A6079314750113D5970082
:104A9000458D7E0692440249518D41018280639981
:104AA000080A138714001377E70F6317071463903E
:104AB0000422630D0E1EE3860EFCB307DE4113973E
:104AC000570063500722B387CE412E8961B7635CDC
:104AD000100B630E08089307F00F6383F406B70703
:104AE0000004B3EEFE00ED4763C9171F93070002F1
:104AF000B3871741B397FE00B3D81E01B337F00058
:104B0000B3E7F800F297139757006357070A850435
:104B10001307F00F6384E40CB706007E13D7170069
:104B2000FD16858B758FD98F35B7638D0E08FD18EF
:104B3000B307DE41E38208EE9307F00FE39DF4EA4A
:104B4000630D030801461305F00FB707400015BFBA
:104B500033079840EDE863020E147D1763080718C9
:104B60009307F00F6319F80E2E893683D1BF638B3C
:104B70000E04FD18B307DE01E38708F89307F00F72
:104B8000E393F4F675BF63950808850413F7E40F03
:104B90006313071263170510630F0E14E3830EEE01
:104BA000B307DE01139757008144635707003707A7
:104BB00000FC7D17F98F854413F77700E31F07E8A2
:104BC00013D337009307F00FE38CF4F69317930099
:104BD000A58313F5F40F4A866DB54A861305F00FC9
:104BE000814745B5370700FC7D17F98F13F777002C
:104BF000898CE31407E6E9B73304DE4193175400C8
:104C000063C3070CE31204E201460145814795BDE9
:104C100033079840ADC49307F00FE308F8F4B707E3
:104C20000004336EFE00ED4763CCE70C93070002EF
:104C3000998FB317FE003357EE00B337F000D98FCA
:104C4000F697C284C9B59307F00FE30FF8F0B707E2
:104C50000004336EFE00ED4763C3E70893060002CD
:104C6000998EB316DE00B357EE003337D000D98FDC
:104C7000B387FE40C2842E8945B3854761BB630E6E
:104C80000E067D17B307DE01C284E30E07E6930725
:104C9000F00FE31AF8F8368365B53683C2842E899F
:104CA00015B7E3040EECE38D0EE869BD638D0E02CB
:104CB0002E86B687F9B39307F00FE381F4F2B307BA
:104CC000DE018583D5BD3384CE412E89B1BBE31C83
:104CD0000EFCE3890EE62E8949BD854725B585473B
:104CE00041BFE39B07EC0146814761BBB387CE41DF
:104CF000C2842E8915B3B68769B33683C284D9B509
:104D000085473DBF3971935775014AD856D25ECE5B
:104D1000931A95001359F50106DE22DC26DA4ED6E9
:104D200052D45AD093F7F70F93DA9A00CA8B638262
:104D300007121307F00F6384E7128E0A3707000487
:104D4000B3EAEA00138A17F80144014B93D77501BF
:104D50009394950093F7F70FA58093D9F501FDC7BC
:104D60001307F00F6387E7028E04938717F837075E
:104D70000004D98C330AFA408146558C172700006D
:104D8000130707E90A043A941C4033493901BA97DA
:104D90008287130A1AF0F9E88946558C1727000014
:104DA000130707EB0A043A941C4033493901BA97B8
:104DB000828701491307F00FB7074000139597004A
:104DC000F25062549317770125817E095D8D33651A
:104DD0002501D2544259B259225A925A025BF24BDF
:104DE000216182801307F00F8147C9BFA68ACE8B4D
:104DF000368B8947630BFB1A8D47E30CFBFA85471B
:104E0000630AFB0A1307FA0713F91B006357E01242
:104E100093F77A0099C793F7FA0091466383D70016
:104E2000910A93974A0063D90700B70700F8FD1766
:104E3000B3FAFA0013070A089307E00FE3C4E7FA8E
:104E400093976A00A5831377F70F8DBFB9E4854662
:104E5000A9B763940A021144014A054BC5BD639981
:104E60000A002144130AF00F094BCDB58D4631B726
:104E70003144130AF00F0D4BD1BD56852EC6EF00FD
:104E8000F02A9307B5FFB39AFA009307A0F8338A84
:104E9000A7400144014BB24555BD2685EF001029BE
:104EA0001307B5FFB307AA00B394E400138A67079A
:104EB0008146E1B513F91B000147814701B74166FF
:104EC000139554007D1693570501698E63FA9A0A6B
:104ED000B3D5FA027D1AD68601473388C502B3F6E8
:104EE000F602C206558F637B07012A979386F5FF6A
:104EF0006368A70A6376070BF9152A9733070741FA
:104F0000B356F7023377F702B38AC6029317070145
:104F100063FB5701AA971387F6FF63E1A70863FFB6
:104F20005707F916AA97C205B38A5741D58DB33AE8
:104F30005001B3EA5501CA8BF1B58546998E11C768
:104F40006D4601478147E34BD6E6130AEA09339AD7
:104F50004A01B3D7DA00B33A4001B3E7570113F778
:104F6000770019C713F7F70091466303D70091073D
:104F700013975700634807029A07A58301473DBD71
:104F800093D61A00B3D5F6021397FA0141833388FA
:104F9000C502B1B7CE8B368B814AA1BDBA8661B747
:104FA000B685A9BF0547814711BD13F91B0013073B
:104FB000F00F814721B593567501B7078000FD17A3
:104FC00013D6750193F6F60F1308F00FB3F8A70088
:104FD0001357F501ED8F1376F60FFD8163810603FC
:104FE000630C06018DE211E2B1C3638E0802630512
:104FF000B70405451DE78280F5D779558280E39E89
:1050000008FE6309D60211E2EDD7E314B7FEE342CE
:10501000D6FE63C7C600E3EE17FD0145E3FDF8FCCD
:1050200001E77D558280F5DD054582800145E392EB
:1050300008FC8280F9DBD1B78146E1BF9356750148
:10504000B7078000FD1713D6750193F6F60F130806
:10505000F00FB3F8A7001357F501ED8F1376F60F95
:10506000FD81638706036309060185EA11EA89EB7E
:105070000145639B080082800945F5FFE5DA31A808
:10508000638C08026300B704054575D77D5582809F
:105090000945639808026304D60211E2F5D7E315C7
:1050A000B7FEE343D6FE63C7C600E3EF17FD014535
:1050B000E3F3F8FC19E3D9BFF1D905458280E5D3C4
:1050C000828082808146C5B7797122D413547501DC
:1050D0004ECE52CC9319950006D626D24AD056CA47
:1050E0005AC81374F40F93D99900135AF50169C47F
:1050F0009307F00F6308F40E939739003707000405
:10510000B3E9E700130414F88144014B13D7750188
:10511000939A95001377F70F93DA9A0013D9F50154
:1051200045CF9307F00F630CF7028E0A130717F8A9
:10513000B7070004B3EAFA003A94014633452A015E
:10514000BD47AA869305140063E097101727000057
:10515000130707B48A04BA949C40BA978287130451
:10516000F40F63960A0C93E424000946C1BF01457D
:105170001307F00FB7074000B2502254A6075E078E
:10518000A5837E05D98F92540259F249624AD24AC8
:10519000424B5D8D45618280CA86D689328B8947B4
:1051A000630FFB088D47E304FBFC854736856310DE
:1051B000FB1A01478147C9B7639D090413D77501DD
:1051C000939A95001377F70F91440144054B93DAB6
:1051D0009A0013D9F50131F7639D0A0093E4140096
:1051E0000546A9BF63920902A1441304F00F094BBD
:1051F00031BF5685252F9307B5FF098CB39AFA0066
:105200001304A4F801461DBFB1441304F00F0D4B65
:10521000F5BD4E852EC6192F9307B5FF1304A0F8D0
:10522000B399F900098C8144014BB245C5B593E4AB
:1052300034000D4621B78947D286E315FBF6368543
:105240001307F00F81470DBF41639306F3FF13D699
:10525000090193D80A01B3F7D900B3FADA00338809
:105260005703B389F80213570801B30A5603D699B6
:105270004E9733061603637357011A96C167FD17DD
:10528000B376F7003378F800C206C29693996600A9
:1052900093570701B3393001E982B2979A07B3E611
:1052A000D900B3E9D7009397490063D9070013D712
:1052B000190093F71900B369F7002E841307F40758
:1052C0006350E00493F7790099C793F7F90091468A
:1052D0006383D70091099397490063D90700B70703
:1052E00000F8FD17B3F9F900130704089307E00F5E
:1052F00063CBE70493976900A5831377F70FADBDE0
:105300008547B386E74011C76D4601478147E345AE
:10531000D6E61307E4093397E9003337E000B3D743
:10532000D900D98F13F7770019C713F7F700914603
:105330006303D700910713975700634C07009A0740
:10534000A583014715BD1307F00F814735B52E849E
:10535000B5B7054781470DB53707800041117D1767
:105360009356750113D87501B377A70093F6F60F1E
:10537000935EF5013376B70026C24AC01378F80F62
:1053800006C622C41303F00F3E8E3689F684139F9F
:105390003700FD8113153600B3880641630268109B
:1053A00093C51500638CBE106354100D6310081074
:1053B0006304051EFD18B307AF4063860802930718
:1053C000F00F6388F616ED4763C71729130700022D
:1053D000330717413317E500B35715013337E000A2
:1053E000D98FB307FF40139757006351071A37044B
:1053F00000047D147D8C2285152B6D15B317A40038
:10540000634E251B330525411304150013070002C5
:10541000018F3397E7003337E000B3D78700D98F88
:10542000014913F7770019C713F7F7009146630393
:10543000D700910713975700635E0714930619006E
:105440001307F00F93FE14006386E6169A07A583F0
:1054500093F6F60FA607B240224413D59700DE0656
:105460009397FE01558D924402495D8D41018280E2
:105470006392080A138716001377E70F631B07145C
:105480006394062263020F2071D5B307AF401397D0
:10549000570063550722B307E5410149AE8451B770
:1054A000E30005F0638ABE0AE35410FD9307F00F92
:1054B0006381F608B70700045D8D31B7635E10099C
:1054C000630108089307F00F6385F606B707000429
:1054D0005D8DED4763C0171F1307000233071741A7
:1054E0003317E500B35715013337E000D98FFA972A
:1054F00013975700635C070805091307F00F630B48
:10550000E90AB706007E13D71700FD16858B758F45
:10551000D98F01BF3307D84063950610630D0F1470
:105520007D176303071A9307F00F6314F810AE8416
:10553000328E630F0E06814E9306F00FB7074000C0
:1055400011BF39C9FD18B307AF00E38308FA930709
:10555000F00FE390F6F8F1BF63990808138916007D
:105560001377E90F63160712639B061063030F1688
:10557000E30205EEB307AF001397570001496357E5
:105580000700370700FC7D17F98F054913F77700EF
:10559000E31C07E813DE37009307F00FE30BF9F87D
:1055A00093179E00A5839376F90F93FE14005DB5C3
:1055B00093FE14009306F00F814769BD370700FC86
:1055C0007D17F98F13F777003309A940E31E07E42D
:1055D000D1B73304AF409317540063C3070CE31CE7
:1055E00004E0814E81468147B5B53307D840B5C642
:1055F0009307F00FE30EF8F2B7070004336FFF00D4
:10560000ED4763CDE70C93070002998FB317FF00B6
:105610003357EF00B337F0005D8FB307A70042891F
:10562000C1BD9307F00FE304F8F0B7070004336F30
:10563000FF00ED4763C2E70893070002998FB31795
:10564000FF003357EF00B337F000D98FB307F540B1
:105650004289AE8449BB854769B3630E0F067D1747
:10566000B307AF004289E30507E89307F00FE3199A
:10567000F8F8328E7DBD328E4289AE8431BFE309A7
:105680000FEAE30805EA45BD0DCDAE8EB287D9B36A
:105690009307F00FE300F9F2B307AF008583FDB580
:1056A0003304E541AE8481BBE31D0FFCE30505E84F
:1056B000AE84BDBD854725BD854749BF0149E397F8
:1056C00007EC814E814779B3B307E5414289AE8447
:1056D00019BBB28741B3328E42897DBD054735BFC4
:1056E00037068000135775019307F6FF1377F70FFE
:1056F0009305E007B3F6A7009357F50163FCE500B7
:105700009305D00963FAE500370500801345F5FFDE
:105710003E9582800145828093055009D18E63CDEC
:10572000E500130660093307E64033D7E60033058A
:10573000E040F5F33A8582801307A7F63397E60039
:10574000FDB713577501370680009307F6FF1377EF
:10575000F70F9305E007B3F6A7009357F50101454E
:1057600063F4E50099C3828082809307E0097D5548
:10577000E3EBE7FE93055009B3E7C60063D7E50006
:105780001307A7F63395E7008280130560093307F6
:10579000E54033D5E7008280411106C622C426C207
:1057A0000DCD9357F54133C4A7001D8CAA842285E3
:1057B000B52A9307E0093387A74093076009FD8066
:1057C00063CCE702A1469377F70F63D5A600611576
:1057D0003314A4002604258021A08144814701447C
:1057E000260413559400B2402244DE07FE045D8D6A
:1057F000458D9244410182809307900963DDE70063
:105800009307B5019546B317F400898E3354D4003D
:10581000B337F0005D8C954763D6A7009307B5FFBB
:105820003314F400B70600FCFD169377740033764A
:10583000D40085C39377F4009145638CB7001106BB
:105840009317560063D707009307F009758E3387C7
:10585000A7401314660025809377F70F51B74111C5
:1058600006C622C415CD2A84D1209307E0093387C8
:10587000A7409307600963C0E704A1469377F70F39
:1058800063D5A60061153314A400260425802604E0
:1058900013559400B2402244DE075D8D41018280A1
:1058A0000144260413559400B24022448147DE0788
:1058B0005D8D410182809307900963DDE7009307C6
:1058C000B5019546B317F400898EB337F000335411
:1058D000D4005D8C954763D6A7009307B5FF3314BA
:1058E000F400B70600FCFD16937774003376D400FD
:1058F00085C39377F4009145638CB7001106931725
:10590000560063D707009307F009758E3387A740C9
:10591000131466002580260413559400B2402244D7
:105920009377F70FDE075D8D41018280C167637C4D
:10593000F5029307F00F1307000263EBA700971718
:1059400000009387E738AA9788233305A740828011
:105950002181971700009387A737AA97882361476B
:105960003305A7408280B7070001636DF5006181B0
:10597000971700009387C735AA97882321473305D7
:10598000A740828041819717000093876734AA97C8
:10599000882341473305A740828035713ECBB70746
:1059A000008093C7F7FF3ECE3EC8C177938787201C
:1059B00032C536C73AC942CD46CF3ECA93878180A9
:1059C0002AC42ACC884334012E862C0086DE36C2B7
:1059D000FD28A24723800700F6500D618280AA8728
:1059E000850703C7F7FF6DFF3385A7407D158280CC
:1059F00001114AC803A9850022CC52C45AC006CE60
:105A000026CA4EC656C22E84328B368A63E82609D1
:105A1000DE2513F7074849C304408C495848AA8A31
:105A2000B389B4408D44B384E4020947B3C4E402AB
:105A3000138716004E9763F3E400BA8493F7074088
:105A4000ADCFA6855685EF00D0042A891DE1B14768
:105A500023A0FA005E247D5593E707045EA4F2407C
:105A60006244D2444249B249224A924A024B0561F9
:105A700082800C484E8641255E2493F7F7B793E762
:105A800007085EA42328240144C84E99B3843441F6
:105A90002320240104C4528963732A0152890840D7
:105AA0004A86DA8511271C440145B38727411CC467
:105AB0001C403E99232024015DB726865685EF00C1
:105AC000300A2A8961F10C485685152749B7DE2529
:105AD000717126D34AD14ECF06D722D552CD56CB9F
